:020000040800F2
:100000000009002051020008B11600085B16000824
:100010005D16000803040008F11D00080000000040
:10002000000000000000000000000000D5160008DD
:10003000A305000800000000D31600085D170008A3
:100040006B0200086B0200086B0200086B020008DC
:100050006B0200086B0200086B0200086B020008CC
:100060006B0200086B0200086B0200086B020008BC
:100070006B0200086B0200086B0200086B020008AC
:100080006B0200086B0200086B02000811040008F4
:10009000050400086B0200086B0200086B020008F0
:1000A0006B0200086B0200086B0200086B0200087C
:1000B000B5170008C11700086B0200086B020008A2
:1000C0006B0200086B0200086B0200086B0200085C
:1000D0006B020008491D0008B51D00086B020008EE
:1000E0006B0200086B0200086B0200086B0200083C
:1000F0006B0200086B0200086B0200086B0200082C
:100100006B0200086B0200086B0200086B0200081B
:100110006B0200086B0200086B0200086B0200080B
:100120006B0200086B0200086B0200086B020008FB
:100130006B0200086B0200086B0200086B020008EB
:100140006B0200086B0200086B0200086B020008DB
:100150006B0200086B0200086B0200086B020008CB
:100160006B0200086B0200086B0200086B020008BB
:100170006B0200086B0200086B0200080000000020
:100180006B0200086B0200086B0200086B0200089B
:100190006B0200086B0200086B0200086B0200088B
:1001A0006B0200086B0200086B02000800F002F806
:1001B00000F03EF80AA090E8000C82448344AAF1C3
:1001C0000107DA4501D100F033F8AFF2090EBAE8C1
:1001D0000F0013F0010F18BFFB1A43F0010318477B
:1001E0008C1C0000AC1C0000103A24BF78C878C1F9
:1001F000FAD8520724BF30C830C144BF04680C602D
:10020000704700000023002400250026103A28BF74
:1002100078C1FBD8520728BF30C148BF0B60704778
:10022000002070471FB501F013FE1FBD10B510BDB3
:1002300000F0A2F81146FFF7F5FF01F0EFFD00F026
:10024000C0F803B4FFF7F2FF03BC01F0D2FD0000D9
:100250000948804709480047FEE7FEE7FEE7FEE75A
:10026000FEE7FEE7FEE7FEE7FEE7FEE70448054996
:10027000054A064B7047000061170008AD010008F1
:1002800000030020000900200005002000050020D8
:10029000704700000FB4044910B503AA029800F09B
:1002A0003DF810BC5DF814FB0C0000202DE9F04176
:1002B0000E460446002020622046E168884730B39D
:1002C000252805D0D4E901219047206A401CF2E797
:1002D000E168204600278847050018D0A5F14100B5
:1002E000192802D820354FF40067324629462046A7
:1002F0002760FFF795FF40B1012804D0F61D26F0D6
:1003000007060836D8E7361DD6E72846DAE7206A1A
:10031000BDE8F0817047704770477047074B70B574
:100320000D467B4400F011F80446284600F020F802
:1003300010B14FF0FF3070BD204670BDE31A0000D1
:1003400001694A1C02610878704700B58FB0CDE999
:1003500001310021059105497944CDE90310114689
:100360006846FFF7A3FF0FB000BD0000E5FFFFFFE9
:10037000007B00F080007047754600F02BF8AE4619
:1003800005006946534620F00700854618B020B5A1
:10039000FFF76CFFBDE820404FF000064FF000076C
:1003A0004FF000084FF0000B21F00701AC46ACE81D
:1003B000C009ACE8C009ACE8C009ACE8C0098D468A
:1003C000704710B50446AFF300802046BDE81040EA
:1003D000FFF737BF00487047A002002010B500F0BB
:1003E0001FFB0723022219214FF4B47001F074F9A6
:1003F000B42001F0FFFCBDE810404FF4E13001F003
:1004000015BDFEE7014800F0D7B80000200000202D
:10041000014800F0D1B800002000002010B54FF4D2
:10042000D872036802EB01129B5813F00404436B6B
:100430009C600468436BA45854D0E4085C60036873
:100440009A58436B02F00202DA604FF4DA720368E2
:1004500002EB01129B58446B03F00F032361036806
:100460009A58436BC2F30722DA614FF4DC720368D7
:1004700002EB01129B58446B237503689B58446B35
:100480001B0A637503689B58446B1B0CA3750368B8
:100490009A58436B120EDA754FF4DE72036802EB62
:1004A00001129B58446B237603689B58446B1B0ACC
:1004B000637603689B58446B1B0CA37603689A58B9
:1004C000436B120EDA762022002901680DD00A61F2
:1004D00001684A6922F010024A6190F83810222916
:1004E00009D021E0640D1C60A9E7CA6001684A696F
:1004F00022F00202F0E701684A6922F480724A6140
:1005000001684A6922F400724A6101684A6922F46A
:1005100080624A6101684A6922F400624A610168A6
:100520004A6922F400424A6190F83810322906D014
:10053000012180F8381000F041F9002010BD12218F
:10054000F7E710B501684A6922F001024A6190F8A4
:100550003810122918D101684A6922F480724A6160
:1005600001684A6922F400724A6101684A6922F40A
:1005700080624A6101684A6922F400624A61016846
:100580004A6922F400424A6190F83810322906D0B4
:10059000012180F8381000F029F9002010BD222137
:1005A000F7E7704701A0FFF775BE00000D0A434151
:1005B0004EB3F6B4ED0D0A0010B50446006841696B
:1005C000C943C90714D182685849914368D00021B2
:1005D0008368574A9A4365D00022836855489843F8
:1005E00062D000201143014302D02046FFF7A9FF4B
:1005F0002068C168406911F0030FC0F3400004D0C7
:1006000018B100212046FFF709FF20680169406901
:1006100011F0030FC0F3001004D018B101212046DF
:10062000FFF7FCFE206881694269C1F3000143695C
:10063000C2F30022C3F3C03329B122B11BB1E16B75
:1006400041F00101E1638169C1F3400241694369FD
:10065000C1F34021C3F3C0332AB121B11BB1E16B17
:1006600041F00201E16381694269C1F38001C2F393
:1006700080234269C2F3C03229B123B11AB1E16BC0
:1006800041F00401E163816911F0700F0ED0002187
:100690004269C2F3C0234269C2F3C03241B127E0CC
:1006A000012195E7012298E701209BE70121EFE76F
:1006B000F3B1EAB1816901F07001402929D006DC6B
:1006C000102909D020290BD030290DD11DE0502947
:1006D00023D0602908D124E0E16B41F0080102E059
:1006E000E16B41F01001E163816921F070018161EA
:1006F000E06B002808D0216804204860012084F8BD
:1007000038002046FFF74EFF10BDE16B41F020019D
:10071000E9E7E16B41F04001E5E7E16B41F0800181
:10072000E1E7E16B41F48071DDE7000003000004C4
:10073000000300080000031010B590F83820012ACB
:1007400001D0122A38D190F83920012A34D0012260
:1007500080F8392090F83820122A28D0222280F8F8
:1007600038200023C3630268546944F480745461E0
:100770000268546944F4007454610268546944F492
:10078000806454610268546944F4006454610268EE
:10079000546944F40044546180F8393000680029F9
:1007A000416906D041F010014161002010BD3222A4
:1007B000D5E741F00201F7E7022010BD406B09497F
:1007C0000268B2F5A46F04D1826812B900690828E2
:1007D00005D00020086000210348FFF7ADBF0120CD
:1007E000F8E700000000002020000020704790F88B
:1007F0003510022903D08021416501207047052171
:1008000080F835100068016821F0010101600020C6
:10081000704700002DE9F84FDFF8A091002209F1A0
:10082000040A0AF1040B4FF00F080BF1040E012625
:100830000B6896403340B34271D14C68022C01D012
:10084000122C11D1D40800EB84073D6A5407E40E42
:1008500008FA04FC25EA0C05D1F810C00CFA04FCD7
:100860004CEA050CC7F820C007685400032591F82E
:1008700004C0A5400CF0030CAF430CFA04FC4CEA96
:10088000070CC0F800C04F68012F05D0022F03D01D
:10089000112F01D0122F11D18768D1F80CC0AF43AE
:1008A0000CFA04FC4CEA070CC0F808C04768B743D0
:1008B0000E79C6F3001696403E434660C668AE43C6
:1008C0008D68A5403543C5604C68E4006FD53C4C4D
:1008D000256845F480452560246822F0030504F46A
:1008E00080440094374C2E19D6F808789407250FC9
:1008F00008FA05F4A743344CA04201D100242EE0AD
:10090000324CA04201D1012429E0314CA04201D156
:10091000022424E02F4CA04202D103241FE046E031
:100920002D4CA04201D1042419E02C4CA04201D14D
:10093000052414E02A4CA04201D106240FE0294CE2
:10094000A04201D107240AE0274CA04201D108248B
:1009500005E0264CA04201D1092400E00A24AC4065
:100960003C43C6F80848D9F800404D464E689C43C1
:10097000F60300D51C432C60DAF8004055464E685B
:100980009C43B60300D51C432C60DBF800405D4659
:100990004E689C43F60200D51C432C60DEF80040F4
:1009A00075464E689C43B60200D51C432C60521C11
:1009B000102AFFF43CAFBDE8F88F0000003C014076
:1009C0004438024000300140000002400004024070
:1009D00000080240000C02400010024000140240D7
:1009E00000180240001C0240002002400024024087
:1009F00042694A40426170470AB181617047090407
:100A0000FBE7000001480068704700001800002064
:100A100002480168491C016070470000180000206E
:100A20000B4810B5016841F400710160016841F4A0
:100A300080610160016841F480710160032000F071
:100A400055F80F2000F006F800F018F8002010BD4F
:100A5000003C024010B5044607484FF47A71006824
:100A6000B0FBF1F000F034FB00222146501E00F0F4
:100A70001DF8002010BD00001C000020704700F091
:100A80001F02012191404009800000F1E020C0F8E0
:100A90008011704700F01F02012191404009800041
:100AA00000F1E020C0F8001170470000F0B40E4BD8
:100AB0001B68C3F30223C3F10704042C00D90424E8
:100AC0001D1D072D01D2002300E0DB1E012606FAC2
:100AD00004F56D1E0D409D409E40761E164045EA71
:100AE0000601F0BC00F0E5BD0CED00E0064A00F0A8
:100AF000070110684FF6FF03184040EA0120034940
:100B000008431060704700000CED00E00000FA059B
:100B10002DE9F8431D48016841F0805101600068EB
:100B2000012700F080500090380490FAA0F0DFF820
:100B30006080B0FA80F048F82070FFF763FF044649
:100B40004FF47A75134E04E0FFF75CFF001BA842D8
:100B500013D87068C003F7D54FF4003090FAA0F0B6
:100B6000B0FA80F048F82070FFF74CFF044607E029
:100B7000FFF748FF001BA84202D90320BDE8F88315
:100B800070688003F4D50020F8E700004038024088
:100B900000000E42007000402DE9F047DFF85C9144
:100BA00004460E46D9F8000000F00F01F0B280466E
:100BB000B14207D289F80000D9F8000000F00F0018
:100BC000B04271D120784E4F800705D53868A168B2
:100BD00020F0F000084338602078C00756D048491C
:100BE0006068083901281AD002281BD0032819D0C0
:100BF00009688907002957DA396821F003010143A0
:100C00003960FFF7FFFE0546606841F28831012830
:100C100011D002281CD003288A4625D032E009686A
:100C20008903E7E709688901E4E7FFF7EBFE411B69
:100C3000514501D923E08A463868C0F38100012874
:100C4000F3D123E0FFF7DEFE411B514501D916E049
:100C50008A463868C0F381000228F3D116E0FFF716
:100C6000D1FE411B51450AD83868C0F381000328E2
:100C7000F5D10BE0FFF7C6FE411B514502D9032019
:100C8000BDE8F087386810F00C0FF3D1D9F80010E8
:100C9000484601F00F01B14208D980F80080006891
:100CA00000F00F00B04201D00120E9E720784007B2
:100CB00005D53868E16820F4E050084338602078B2
:100CC000000706D53868216920F4604040EAC10079
:100CD000386000F04BF83968F02292FAA2F201F085
:100CE000F001B2FA82F2D140064A515CC84006498E
:100CF00008600F20FFF7AEFE0020C1E7003C024075
:100D0000083802405A1E00081C0000200848094903
:100D1000006809684FF4E05292FAA2F201F4E0513F
:100D2000B2FA82F2D140044A515CC84070470000D8
:100D30001C000020083802405A1E000808480949D3
:100D4000006809684FF4604292FAA2F201F460412F
:100D5000B2FA82F2D140044A515CC84070470000A8
:100D60001C000020083802405A1E000830B51948FF
:100D7000006810F00C01184812D0184C04290ED04D
:100D800008290DD1134A121F1168136801F03F01A1
:100D90005D0247F6C07304D5B4FBF1F003E02046D2
:100DA00030BDB0FBF1F01168194093FAA3F3B3FA28
:100DB00083F3D940484311684FF4403292FAA2F2CB
:100DC00001F44031B2FA82F2D140491C4900B0FB33
:100DD000F1F030BD083802400024F40040787D0175
:100DE0002DE9F84F04460078DFF8B892AE4DC00701
:100DF00035D0D9F800104846C1F38101012908D047
:100E00000068C0F3810002280AD1281D0068400252
:100E100006D52868800322D5606800287AD01EE0B5
:100E2000A1492079891C0870606860B1FFF7EAFD6C
:100E3000064604E0FFF7E6FD801B64286BD82868AF
:100E40008003F7D50BE0FFF7DDFD064604E0FFF772
:100E5000D9FD801B6428F1D828688003F7D4207856
:100E6000924F80074FF0010B4FF0000842D5D9F8A0
:100E70000010484611F00C0F4FF0F80A09D0006836
:100E8000C0F3810002280BD18648001F0068400291
:100E900006D42868800713D5E06801283AD10FE00E
:100EA000E068C8B1C7F800B0FFF7ACFD064604E043
:100EB000FFF7A8FD801B0228C0D828688007F7D557
:100EC00028689AFAAAF22169B2FA82F220F0F800B0
:100ED0009140084328600DE0C7F80080FFF792FDBD
:100EE000064604E0FFF78EFD801B022813D8286811
:100EF0008007F7D42078000727D5DFF8A8A16C4831
:100F000061690AF16C0A89B1C0F800B0FFF77AFD97
:100F1000064606E0C3E076E0FFF774FD801B02287A
:100F200071D8DAF800008007F6D50EE0C0F800802E
:100F3000FFF768FD064604E0FFF764FD801B02280A
:100F400061D8DAF800008007F6D42078400746D54B
:100F500054483830016841F0805101600068DFF882
:100F600054A100F080500090DAF8001041F4807134
:100F7000CAF80010FFF746FD064604E0FFF742FD01
:100F8000801B02283FD8DAF80000C005F6D5DFF84C
:100F900014A1207A0AF1680A8AF80000A06878B1E2
:100FA000FFF730FD064606E0FFF72CFD811B41F2FE
:100FB000883081426BD8DAF800008007F4D50EE063
:100FC000FFF720FD064606E0FFF71CFD811B41F2FE
:100FD000883081425BD8DAF800008007F4D4A06939
:100FE000F0B3D9F80010C1F38101022957D00228CB
:100FF000C7F8608003D0FFF705FD04464AE0FFF71D
:1010000001FD064605E042E0FFF7FCFC801B0228DC
:101010003DD828688001F7D4D4E90701084347F692
:10102000C07292FAA2F2616AB2FA82F29140A26AA6
:101030004FF0FF3303EB52024FF4403393FAA3F324
:10104000B3FA83F39A40114308434FF0706292FA67
:10105000A2F2E16AB2FA82F291400843114900E03B
:101060001BE0091F0860C7F860B0FFF7CBFC04461F
:1010700004E0FFF7C7FC001B022808D8286880019D
:10108000F7D50AE0FFF7BEFC001B022802D90320B7
:10109000BDE8F88F28688001F4D40020F8E701202B
:1010A000F6E70000083802400038024000004742DE
:1010B000800E4742007000404FF0E021042808698C
:1010C00003D020F004000861704740F00400FAE704
:1010D00010B5401EB0F1807F01D3012010BD4FF04C
:1010E000E02460610F21601700F0E3FA0020A061A6
:1010F00007202061002010BD7047704710B5040024
:1011000003D094F8390010B107E0012010BD002091
:1011100084F83800204600F00CF8022084F83900EA
:10112000211D206800F052FB012084F839000020C6
:1011300010BD70470168CA6842F00102CA600068C9
:10114000016841F001010160002070470168CA6830
:1011500022F00102CA600068016A41F211121142D4
:1011600007D1016A9210114203D1016821F00101F7
:10117000016000207047704770B50446006801693F
:101180004FF00005C943890715D4C168C9438907D1
:1011900011D4E91E01610120207620688069800752
:1011A000204602D0FFF7E7FF04E000F098F8204661
:1011B00000F096F8257620680169C943490717D4DD
:1011C000C168C943490713D46FF0040101610220CB
:1011D00020762068806910F4407F204602D0FFF717
:1011E000CAFF04E000F07BF8204600F079F825768D
:1011F00020680169C943090716D4C168C9430907B2
:1012000012D46FF008010161042020762068C069C3
:101210008007204602D0FFF7AEFF04E000F05FF841
:10122000204600F05DF8257620680169C943C906AB
:1012300017D4C168C943C90613D46FF01001016106
:10124000082020762068C06910F4407F204602D034
:10125000FFF791FF04E000F042F8204600F040F86C
:10126000257620680169C943C90708D1C168C94307
:10127000C90704D1891E0161204600F033F82068B7
:101280000169C943090609D4C168C943090605D4DF
:101290006FF0800101612046FFF72EFF2068016991
:1012A000C943490609D4C168C943490605D46FF04A
:1012B00040010161204600F06BF820680169C943D4
:1012C00089060BD4C168C943890607D46FF0200191
:1012D00001612046BDE87040FFF70FBF70BD704749
:1012E000704700002DE9F04104462648264F274D5F
:1012F00000F13C0684422DD1287840B100202870AE
:1013000040213846FFF774FB287810B10DE001202A
:10131000F5E71D20FFF7BEFB012210213846FFF73D
:101320006BFB18483C30FFF705FF2878012811D1E6
:101330003168401F08613168401008611D20FFF7C7
:101340009EFB10483C30FFF701FF00221021384679
:10135000FFF752FBB44213D16868401C686006284E
:1013600004D1002210213846FFF746FB6868102898
:1013700006D1012210213846FFF73EFB00206860AD
:10138000BDE8F08128020020000C0240100000207F
:101390007047704770B5026804461068D168536999
:1013A00010F00F0F51D003F0010501F49076354392
:1013B0005DD0C20705D0CA0503D5E26B42F0010239
:1013C000E263420705D5DA0703D0E26B42F002027E
:1013D000E263820705D5DA0703D0E26B42F004022C
:1013E000E263020705D5DA0703D0E26B42F0080298
:1013F000E263E26B002A34D0800604D5880602D569
:10140000204600F0A3FA20684069E16BC0F3801029
:1014100001F008010143204624D000F089FA206839
:10142000416949061AD5416921F040014161606B6B
:10143000A0B11B490165606BFFF7D9F9002810D0F6
:10144000606B016DBDE87040084783060FD58B06C1
:101450000DD52046BDE8704000F078BA2046FFF771
:1014600098FF70BDFFF795FF0020E06370BD030695
:1014700006D50B0604D52046BDE8704000F002BC3E
:101480004006F3D54806F1D5D168204621F0400149
:10149000D160202184F8391000F0DEF870BD000022
:1014A0002119000870B5040004D094F83900002513
:1014B00010B106E0012070BD84F83850204600F0DD
:1014C00023F8242084F839002068C16821F40051F1
:1014D000C160204600F080FA2068016921F4904143
:1014E00001612068416921F02A0141612068C168D9
:1014F00041F40051C160E563202084F8390084F88C
:101500003A00002070BD000030B504460068204954
:1015100087B0884239D11F48016841F0010101605C
:10152000006800F0010005901A481430016841F08D
:10153000100101600068012100F0100005904FF4D7
:10154000007000900220CDE9010103900720124DA8
:10155000049069462846FFF75DF928150090694612
:101560002846FFF757F92068C16821F04001C160A3
:101570002068C16841F02001C1602520FFF78AFA88
:10158000032211462520FFF791FA07B030BD000075
:101590000010014030380240000002402DE9F843BD
:1015A000044690F83A001E4617460D46202850D1B2
:1015B00035B32FB394F8380001284AD0012084F8BD
:1015C00038004FF00008C4F83C80222084F83A002C
:1015D000FFF718FAA785E78581464FF48057E08D1D
:1015E0004B46401EE085A0684FF00002B8424FF025
:1015F00020012046009614D100F075FBA0B902E04E
:101600000120BDE8F883206900282068406803D0E5
:10161000C1B225F8011B12E0C0F3080125F8021B36
:101620000DE000F060FB08B10320EAE72069002824
:101630002068406801D000F07F0005F8010BE08DC4
:101640000028CCD1202084F83A0084F8388000208B
:10165000D7E70220D5E770477047FEE7FEE70000B6
:10166000114810B5016886B041F0080101600068BA
:101670000E4C00F0080005905020009001200190D1
:1016800002900320039069462046FFF7C3F8012229
:1016900010212046FFF7B0F9002240212046FFF735
:1016A000ABF906B010BD000030380240000C02401B
:1016B00070470907090E002806DA00F00F0000F154
:1016C000E02080F8141D704700F1E02080F800143D
:1016D000704770477047000070B51E4C92B00025EF
:1016E000266846F080562660246804F080541194E1
:1016F000194C266846F44046266024680DF1240CF7
:1017000004F44044119401240094019402240694AA
:101710008CE80D006605CDE907616846FFF760FBC0
:1017200000B1FEE7FFF7F4F900B1FEE70CA90F20C6
:1017300081E831004FF4A0500F904FF4805010908A
:1017400005210CA8FFF728FA002800D0FEE712B008
:1017500070BD00004038024000700040FFF758B9EB
:101760001048016841F4700101600F48016841F0C0
:10177000010101600C4A00210832116002680B4B24
:101780001A400260031D0A4A1A60026822F480228D
:10179000026005480C300160024958068039086033
:1017A0007047000088ED00E000380240FFFFF6FEC1
:1017B000103000240148FFF7DFBC000028020020A1
:1017C0000148FFF7D9BC000064020020F0B50268B0
:1017D000234D244E244FDFF894C0254B4FF0804E0C
:1017E000A84209D0704507D0B04205D0B84203D016
:1017F000604501D0984203D122F070044A68224328
:10180000A8421BD0704519D0B04217D0B84215D0AD
:10181000604513D0984211D0164CA0420ED0164C01
:10182000A0420BD0154CA04208D0154CA04205D0C8
:10183000144CA04202D0144CA04203D122F44074B4
:10184000CA68224302608A68C2620A688262A84249
:1018500001D0984201D10969016301214161F0BDC4
:10186000000001400004004000080040000C00405F
:101870000004014000400140004401400048014094
:1018800000180040001C00400020004038B52148EE
:101890000024016841F001010160016801F00101CB
:1018A0000091016841F0020101600068032200F02C
:1018B0000200009021461C20FFF7F8F81C20FFF7DB
:1018C000E9F8032201211D20FFF7F0F81D20FFF7A2
:1018D000E1F811484FF0804101602C21C0E901146A
:1018E00040F22F21C0E90314FFF708FC0A480B4916
:1018F0003C300160012101760421C0E90114082176
:10190000C0E90314FFF7FAFBBDE8384002483C3059
:10191000FFF710BC403802402802002000040040BD
:1019200010B5806B0021C185C184FFF732FD10BD69
:101930000168CA6822F49072CA6001684A6922F09C
:1019400001024A61202180F83A10704710B590F8E2
:101950003A10222901D0022010BD8168B1F5805FC4
:1019600011D00169002901681FD0496801F07F0387
:10197000816A4A1C82620B70C18D491E0904090CE0
:10198000C18518D026E00269816A002A026852687F
:1019900005D0D2B20A80816A491C8162ECE7C2F3A9
:1019A00008020A80816A891CF7E74A68816A4B1C31
:1019B00083620A70E0E70168CA6822F49072CA6024
:1019C00001684A6922F001024A61202180F83A1038
:1019D000FFF741FE002010BD2DE9F04104460068EC
:1019E000016921F44052E168114301612068C16836
:1019F00049F20C6291432369A268E5691A4363695D
:101A00002B431A430A43C26020684169A26921F44A
:101A100040710A434261E0696425B0F5004F974A7E
:101A2000974920684FF032083FD0884201D0904259
:101A30007CD1FFF783F900EBC00101EB0010616876
:101A40008900B0FBF1F6FFF779F900EBC00101EB7B
:101A5000001061688900B0FBF1F0B0FBF5F06FF0A9
:101A60001801484306EB800108EB0110B0FBF5F0CC
:101A700000F0F006FFF762F900EBC00101EB001087
:101A800061688900B0FBF1F0B0FBF5F006EB0016E1
:101A9000FFF754F900EBC00101EB00106168890009
:101AA000B0FBF1F7FFF74AF9D2E0884201D090424B
:101AB0003DD1FFF743F900EBC00101EB0010616875
:101AC0004900B0FBF1F0B0FBF5F00601FFF736F985
:101AD00000EBC00101EB001061684900B0FBF1F7B9
:101AE000FFF72CF900EBC00101EB00106168490021
:101AF000B0FBF1F0B0FBF5F06FF01801484307EBD5
:101B0000800108EBC100B0FBF5F000F0F80006EB37
:101B10004006FFF713F900EBC00101EB001061680C
:101B20004900B0FBF1F7FFF709F93CE055E0FFF79A
:101B3000EDF800EBC00101EB001061684900B0FB5B
:101B4000F1F0B0FBF5F00601FFF7E0F800EBC001A3
:101B500001EB001061684900B0FBF1F7FFF7D6F820
:101B600000EBC00101EB001061684900B0FBF1F02F
:101B7000B0FBF5F06FF01801484307EB800108EB6C
:101B8000C100B0FBF5F000F0F80006EB4006FFF7EF
:101B9000BDF800EBC00101EB001061684900B0FB2B
:101BA000F1F7FFF7B3F800EBC00101EB001061683B
:101BB0004900B0FBF1F0B0FBF5F06FF018014843BD
:101BC00007EB800108EBC100B0FBF5F000F0070067
:101BD000216830448860BDE8F081FFF797F800EB9A
:101BE000C00101EB001061688900B0FBF1F6FFF75E
:101BF0008DF800EBC00101EB001061688900B0FBBB
:101C0000F1F0B0FBF5F06FF01801484306EB8001EE
:101C100008EB0110B0FBF5F000F0F006FFF776F8E6
:101C200000EBC00101EB001061688900B0FBF1F02E
:101C3000B0FBF5F006EB0016FFF768F800EBC0010B
:101C400001EB001061688900B0FBF1F7FFF75EF867
:101C500000EBC00101EB001061688900B0FBF1F0FE
:101C6000B0FBF5F06FF01801484307EB800108EB7B
:101C70000110B0FBF5F000F00F00A9E700140140DF
:101C80000010014090F83910212901D0022070473E
:101C90008168B1F5805F016A0BD04A1C026202685C
:101CA00009785160C18C491E0904090CC1840ED009
:101CB00017E009880268C1F3080151600169002931
:101CC000016A02D0491C0162ECE7891CFBE701684C
:101CD000CA6822F08002CA600068C16841F0400111
:101CE000C160002070472DE9F0411E461746884626
:101CF0000446069D1CE0681C1AD025B1FEF782FE42
:101D0000801BA84214D92068C16821F4D071C16039
:101D10002068416921F001014161202084F83900E7
:101D200084F83A00002084F838000320BDE8F081F0
:101D30002068016838EA010004D00020B842DAD0F7
:101D40000020F3E70120F9E738B51848006800687B
:101D5000C043800622D44FF47A73012269461348A7
:101D6000FFF71CFC124A1088010417D441049DF8A7
:101D700000104FF0000304D50A290ED140F40040B2
:101D800012E00D290ED0C0F30D04084D401CC83DD3
:101D900080B229551080C72800D913800348FFF767
:101DA000F9FA38BD40F480401080F7E7E8010020E0
:101DB0000A0000200C4808B500680068C04380068F
:101DC00011D44FF47A73012269460748FFF7E6FB06
:101DD00006490878402806D2034B9DF8002040337E
:101DE0001A54401C087008BDA00000200800002004
:101DF000FEE7704710B504460420FFF75DF901487F
:101E0000046010BD0400002003490A685206FCD596
:101E1000C2B24A607047000000100140FEF7DEFACF
:101E2000FFF71EFCFFF732FDFEE700000749064AF8
:101E3000C1E9002000208860C860086188610C202A
:101E400048610846FFF72EBB00100140E801002062
:101E50004FF04070E1EE100A7047000000000102F0
:101E60000304010203040607080900008C1E000891
:101E70000000002020000000E8010008AC1E00085F
:101E800020000020E008000004020008000000001C
:101E90000000000000000000000000000100000041
:0C1EA00000000000000000000024F4001E
:04000005080001AD41
:00000001FF
