:020000040800F2
:100000001008002055020008AF110008AB110008CD
:10001000AD110008330500086D160008000000004F
:10002000000000000000000000000000D3110008E4
:100030003505000800000000D11100085912000821
:100040006F0200086F0200086F0200086F020008CC
:100050006F0200086F0200086F0200086F020008BC
:100060006F0200086F0200086F0200086F020008AC
:100070006F0200086F0200086F0200086F0200089C
:100080006F0200086F0200086F0200086F0200088C
:100090006F0200086F0200086F0200086F0200087C
:1000A0006F0200086F0200086F0200086F0200086C
:1000B0006F0200086F0200086F0200086F0200085C
:1000C0006F0200086F0200086F0200086F0200084C
:1000D0006F020008C5150008311600086F020008FD
:1000E0006F0200086F0200086F0200086F0200082C
:1000F0006F0200086F0200086F0200086F0200081C
:100100006F0200086F0200086F0200086F0200080B
:100110006F0200086F0200086F0200086F020008FB
:100120006F0200086F0200086F0200086F020008EB
:100130006F0200086F0200086F0200086F020008DB
:100140006F0200086F0200086F0200086F020008CB
:100150006F0200086F0200086F0200086F020008BB
:100160006F0200086F0200086F0200086F020008AB
:100170006F0200086F0200086F0200080000000014
:100180006F0200086F0200086F0200086F0200088B
:100190006F0200086F0200086F0200086F0200087B
:1001A0006F0200086F0200086F02000800F002F8FA
:1001B00000F041F80AA090E8000C82448344AAF1C0
:1001C0000107DA4501D100F036F8AFF2090EBAE8BE
:1001D0000F0013F0010F18BFFB1A43F0010318477B
:1001E0007015000090150000103A24BF78C878C13F
:1001F000FAD8520724BF30C830C144BF04680C602D
:10020000704700000023002400250026103A28BF74
:1002100078C1FBD8520728BF30C148BF0B60704778
:10022000642900F07980002070471FB501F082FA40
:100230001FBD10B510BD00F037F91146FFF7F5FFEF
:1002400001F052FA00F055F903B4FFF7F2FF03BCD6
:1002500001F00DFA0948804709480047FEE7FEE72C
:10026000FEE7FEE7FEE7FEE7FEE7FEE7FEE7FEE766
:1002700004480549054A064B704700005D12000816
:10028000AD0100081002002010080020100400201A
:1002900010040020704700000FB4044910B503AAF1
:1002A000029800F0D3F810BC5DF814FB08000020A1
:1002B0002DE9F0410E460446002020622046E16808
:1002C000884730B3252805D0D4E901219047206A1A
:1002D000401CF2E7E168204600278847050018D057
:1002E000A5F14100192802D820354FF400673246A5
:1002F000294620462760FFF793FF40B1012804D02C
:10030000F61D26F007060836D8E7361DD6E728463C
:10031000DAE7206ABDE8F0812DE9F04106460024C5
:1003200010687529314616A510D0AFF3008000285B
:1003300002DA404213A507E031688A0701D512A509
:1003400002E0490704D511A5012401E0AFF30080C4
:1003500000210A2206F1240709E0B0FBF2FCB0FB01
:10036000F2F302FB1C00303078541846491C002878
:10037000F3D123462A463046BDE8F04100F00CB8E0
:10038000000000002D0000002B00000020000000F5
:1003900070477047704770472DE9F0470D46994602
:1003A0009246044600F124080168880604D5E069F5
:1003B00021F01001216000E00120A84201DD471B6F
:1003C00000E00027A1697A1902EB0900081AA06170
:1003D0002078C00602D42046AFF30080002608E053
:1003E000D4E901211AF806009047206A401C761CC7
:1003F00020624E45F4DB2078C0060AD52046AFF3D4
:10040000008006E0D4E9012130209047206A401C9A
:100410002062381EA7F10107F4DC07E0D4E90121CE
:1004200018F805009047206A401C2062281EA5F19C
:100430000105F3DC2046AFF300802078000602D5EA
:100440000220BDE8F0870120FBE70000074B70B5F4
:100450000D467B4400F011F80446284600F020F8D1
:1004600010B14FF0FF3070BD204670BD7F1200000C
:1004700001694A1C02610878704700B58FB0CDE968
:1004800001310021059105497944CDE90310114658
:100490006846FFF70DFF0FB000BD0000E5FFFFFF4E
:1004A000007B00F080007047754600F02BF8AE46E8
:1004B00005006946534620F00700854618B020B570
:1004C000FFF7D6FEBDE820404FF000064FF00007D2
:1004D0004FF000084FF0000B21F00701AC46ACE8EC
:1004E000C009ACE8C009ACE8C009ACE8C0098D4659
:1004F000704710B50446AFF300802046BDE81040B9
:10050000FFF7A2BE00487047AC01002010B500F014
:100510000FF90823022219214FF4B47000F05AFE9B
:10052000B42001F0A5F8BDE810404FF4E13001F02F
:10053000EFB8FEE7704700002DE9F84FDFF8A09113
:10054000002209F1040A0AF1040B4FF00F080BF125
:10055000040E01260B6896403340B34271D14C68BB
:10056000022C01D0122C11D1D40800EB84073D6A73
:100570005407E40E08FA04FC25EA0C05D1F810C073
:100580000CFA04FC4CEA050CC7F820C007685400BC
:10059000032591F804C0A5400CF0030CAF430CFAFE
:1005A00004FC4CEA070CC0F800C04F68012F05D0CE
:1005B000022F03D0112F01D0122F11D18768D1F84B
:1005C0000CC0AF430CFA04FC4CEA070CC0F808C09E
:1005D0004768B7430E79C6F3001696403E4346601F
:1005E000C668AE438D68A5403543C5604C68E400DD
:1005F0006FD53C4C256845F480452560246822F081
:10060000030504F480440094374C2E19D6F808787A
:100610009407250F08FA05F4A743344CA04201D1F2
:1006200000242EE0324CA04201D1012429E0314CBB
:10063000A04201D1022424E02F4CA04202D1032485
:100640001FE046E02D4CA04201D1042419E02C4CBF
:10065000A04201D1052414E02A4CA04201D1062475
:100660000FE0294CA04201D107240AE0274CA04208
:1006700001D1082405E0264CA04201D1092400E064
:100680000A24AC403C43C6F80848D9F800404D461F
:100690004E689C43F60300D51C432C60DAF80040FA
:1006A00055464E689C43B60300D51C432C60DBF8CE
:1006B00000405D464E689C43F60200D51C432C600A
:1006C000DEF8004075464E689C43B60200D51C43D8
:1006D0002C60521C102AFFF43CAFBDE8F88F0000DC
:1006E000003C01404438024000300140000002401C
:1006F0000004024000080240000C024000100240CA
:100700000014024000180240001C02400020024079
:100710000024024001480068704700000C000020DF
:1007200002480168491C0160704700000C0000206D
:100730000B4810B5016841F400710160016841F493
:1007400080610160016841F480710160052000F062
:1007500049F80F2000F006F800F015F8002010BD51
:10076000003C024010B5044600F096F94FF47A714F
:10077000B0FBF1F000F0AAFB00222146501E00F071
:1007800011F8002010BD08B50020009008BD00F051
:100790001F02012191404009800000F1E020C0F8D3
:1007A00000117047F0B40E4B1B68C3F30223C3F172
:1007B0000704042C00D904241D1D072D01D2002399
:1007C00000E0DB1E012606FA04F56D1E0D409D407B
:1007D0009E40761E164045EA0601F0BC00F0E8BCDB
:1007E0000CED00E0064A00F0070110684FF6FF0329
:1007F000184040EA01200349084310607047000098
:100800000CED00E00000FA052DE9F8431D480168F1
:1008100041F0805101600068012700F08050009095
:10082000380490FAA0F0DFF86080B0FA80F048F861
:100830002070FFF76FFF04464FF47A75134E04E003
:10084000FFF768FF001BA84213D87068C003F7D5F4
:100850004FF4003090FAA0F0B0FA80F048F8207021
:10086000FFF758FF044607E0FFF754FF001BA842BC
:1008700002D90320BDE8F88370688003F4D5002016
:10088000F8E700004038024000000E4200700040CF
:100890002DE9F05FDFF8F8A104460F46DAF8000012
:1008A000DFF8F08100F00F02C8B27A49814641F2C8
:1008B000883608F10808BA4261D202468AF8002058
:1008C000DAF8000000F00F00B8427DD120788007F0
:1008D00007D5D8F80020A36822F0F0021A43C8F820
:1008E00000202078C0072DD0606801281AD0022887
:1008F0001BD0032819D009688907002964DAD8F8C1
:100900000010474621F003010143C8F80010FFF72B
:1009100001FF0546606801280FD0022818D003287F
:100920001CD027E009688903E7E709688901E4E743
:10093000FFF7F0FE401BB04258D83868C0F3810082
:100940000128F5D188E0FFF7E5FE401BB0424DD805
:100950003868C0F381000228F5D17DE03868FFF7E0
:10096000D9FE401BB042F9D940E0FFF7D3FE401B4F
:10097000B0423BD8386810F00C0FF6D16CE020780C
:10098000800707D5D8F80020A36822F0F0021A43A8
:10099000C8F800202078C0074CD06068012828D013
:1009A000022829D0032827D009688907002949DAB5
:1009B000D8F8002022F003020243C8F80020FFF715
:1009C000A9FE0546606800E03CE001281DD0022831
:1009D00029D0032838D0B3464646306810F00C0FB3
:1009E00028D0FFF797FE411B5945F6D90320BDE8F3
:1009F000F09F09688903D9E709688901D6E7FFF7FD
:100A000089FE411B594502D9F0E7B3464646306896
:100A1000C0F381000128F2D10CE0FFF77BFE411BFF
:100A2000594502D9E2E7B34646463068C0F3810033
:100A30000228F2D18AF80090DAF8000000F00F00E6
:100A4000B84209D00120D2E744462068FFF762FE91
:100A5000401BB042F9D9C9E72078400707D5D8F83C
:100A60000010E26821F4E0511143C8F8001020782A
:100A7000000708D5D8F80010226921F4604141EA46
:100A8000C201C8F800100F20FFF76CFE0020AEE78F
:100A9000003C02400038024010B500F043F808491D
:100AA0000968F02292FAA2F201F0F001B2FA82F2A1
:100AB000D140044A515CC8400349086010BD0000A1
:100AC000083802403E1700081000002010B5FFF75C
:100AD000E3FF074909684FF4E05292FAA2F201F4E9
:100AE000E051B2FA82F2D140024A515CC84010BDD6
:100AF000083802403E17000810B5FFF7CDFF074940
:100B000009684FF4604292FAA2F201F46041B2FA2D
:100B100082F2D140024A515CC84010BD0838024000
:100B20003E17000830B51948006810F00C0118484D
:100B300012D0184C04290ED008290DD1134A121FC7
:100B40001168136801F03F015D0247F6C07304D5D8
:100B5000B4FBF1F003E0204630BDB0FBF1F01168CA
:100B6000194093FAA3F3B3FA83F3D94048431168C9
:100B70004FF4403292FAA2F201F44031B2FA82F21A
:100B8000D140491C4900B0FBF1F030BD08380240AB
:100B90000024F40040787D012DE9F84F04460078E8
:100BA000DFF8FCA2BF4DC0074FF0000648D0DAF8CE
:100BB00000105046C1F38101012908D00068C0F33C
:100BC000810002280AD1281D0068400206D5286845
:100BD000800335D56068002873D031E0DFF8C49217
:100BE00009F1020989F80060FFF794FD074641F218
:100BF000883804E0FFF78EFDC11B41457AD828688C
:100C00008003F7D4207989F80000606860B1FFF7AD
:100C100081FD074604E0FFF77DFDC11B4145EDD88E
:100C200028688003F7D50BE0FFF774FD074604E062
:100C3000FFF770FDC11B4145E0D828688003F7D459
:100C40002078DFF86492800744D5DAF80010504627
:100C500011F00C0F4FF0F80809D00068C0F38100C4
:100C600002280BD18E48001F0068400206D4286875
:100C7000800714D5E068012823D110E0E068D0B1E6
:100C80000120C9F80000FFF745FD074604E0FFF723
:100C900041FDC01B6428B1D828688007F7D52868B3
:100CA00098FAA8F22169B2FA82F220F0F800914095
:100CB000084328600EE0C9F80060FFF72BFD0746E7
:100CC00005E0EAE0FFF726FDC01B642812D828687B
:100CD0008007F7D42078000725D5DFF8C481734852
:100CE000616908F16C0881B101210160FFF712FD13
:100CF000074605E07EE0FFF70DFDC01B642879D8AC
:100D0000D8F800008007F6D50DE00660FFF702FD79
:100D1000074604E0FFF7FEFCC01B64286AD8D8F839
:100D200000008007F6D42078400753D55C4838305F
:100D3000016841F0805101600068DFF8748100F0C3
:100D400080500090D8F8001041F48071C8F800106D
:100D5000FFF7E0FC074604E0FFF7DCFCC01B64285B
:100D600048D8D8F80000C005F6D5DFF834B10BF14B
:100D7000680B8BF80060FFF7CDFC074641F288381E
:100D800004E0FFF7C7FCC11B41457ED8DBF800003B
:100D90008007F6D4207A8BF80000A06868B1FFF7CE
:100DA000B9FC074604E0FFF7B5FCC11B41456CD810
:100DB000DBF800008007F6D50CE0FFF7ABFC074638
:100DC00004E0FFF7A7FCC11B41455ED8DBF800003B
:100DD0008007F6D4A069E8B3DAF80010C1F3810106
:100DE00002295AD0022806D0C9F86060FFF792FCA9
:100DF00004464DE049E04F46C9F86060FFF78AFCC1
:100E0000064604E0FFF786FC801B64283DD828686E
:100E10008001F7D4D4E90701084347F6C07191FA7D
:100E2000A1F1626AB1FA81F18A40A16A4FF0FF3301
:100E300003EB51014FF4403393FAA3F3B3FA83F376
:100E400099400A4310434FF0706292FAA2F2B2FA4C
:100E500082F200E01FE0E16A914008431049091F57
:100E6000086001203866FFF755FC044604E0FFF7F0
:100E700051FC001B642808D828688001F7D50AE0D7
:100E8000FFF748FC001B642802D90320BDE8F88F57
:100E900028688001F4D40020F8E70120F6E700007C
:100EA000083802400038024000004742800E4742A6
:100EB000007000404FF0E0210428086903D020F0C2
:100EC00004000861704740F00400FAE710B5401EC6
:100ED000B0F1807F01D3012010BD4FF0E0246061AC
:100EE0000F21601700F064F90020A0610720206145
:100EF000002010BD704738B5016804460868CA680C
:100F0000C0F3000002F4807238B132B1086848685A
:100F10000090E06B40F00100E06308684A69C0F3AC
:100F2000400002F0010238B132B108684868009010
:100F3000E06B40F00400E06308684A69C0F3800099
:100F400002F0010238B132B1086848680090E06BE5
:100F500040F00200E06308684A69C0F3C00002F094
:100F6000010238B132B1086848680090E06B40F087
:100F70000800E0630868C968C0F3401001F0200170
:100F800018B111B1204600F093F920680168C068DB
:100F9000C1F3C01100F0800019B110B1204600F07B
:100FA00095FA21680868CA68C0F3801002F0400210
:100FB000012568B162B1CA68204622F04002CA60C9
:100FC00094F8391032290CD080F8395000F0ECF840
:100FD000E06B002804D084F839502046FFF78AFFE0
:100FE00038BD222180F83910F0E770B5040004D034
:100FF00094F83900002510B106E0012070BD84F896
:101000003850204600F020F8022084F8390020688B
:10101000C16821F40051C160204600F09DF92068AC
:10102000016921F4904101612068416921F02A01A0
:1010300041612068C16841F40051C160E56301204D
:1010400084F83900002070BD30B50446006820499E
:1010500087B0884239D11F48016841F00101016021
:10106000006800F0010005901A481430016841F052
:10107000100101600068012100F0100005904FF49C
:10108000007000900220CDE9010103900720124D6D
:10109000049069462846FFF74FFA281500906946E4
:1010A0002846FFF749FA2068C16821F04001C16075
:1010B0002068C16841F02001C1602520FFF767FB6F
:1010C000032211462520FFF76DFB07B030BD00005D
:1010D0000010014030380240000002402DE9F04786
:1010E000044690F8390099460D46012801D012288F
:1010F00057D125B31AB394F83800012851D00126EE
:1011000084F838600027E76394F83900122819D072
:10111000222084F83900A285E2854FF48058E08DC2
:101120004B46401EE085A0684FF0000240454FF05E
:101130002001204616D100F0FCF9B0B904E00120EE
:10114000BDE8F0873220E4E7206900282068406885
:1011500003D0C1B225F8011B12E0C0F3080125F845
:10116000021B0DE000F0E5F908B10320E8E7206973
:1011700000282068406801D000F07F0005F8010BCE
:10118000E08D0028CBD194F83900322805D084F8BE
:10119000396084F838700020D2E7122084F83900D2
:1011A000F7E70220CCE770477047FEE7FEE770479D
:1011B0000907090E002806DA00F00F0000F1E02010
:1011C00080F8141D704700F1E02080F8001470478B
:1011D0007047704770B51E4C92B00025266846F0E7
:1011E00080562660246804F080541194194C2668B7
:1011F00046F44046266024680DF1240C04F4404473
:101200001194012400940194022406948CE80D00AA
:101210006605CDE907616846FFF7BEFC00B1FEE751
:10122000FFF7F2FA00B1FEE70CA90F2081E83100C8
:101230004FF4A0500F904FF48050109005210CA84F
:10124000FFF726FB002800D0FEE712B070BD0000BB
:101250004038024000700040FFF762BA1048016851
:1012600041F4700101600F48016841F00101016023
:101270000C4A00210832116002680B4B1A400260D0
:10128000031D0A4A1A60026822F48022026005489F
:101290000C30016002495806803908607047000030
:1012A00088ED00E000380240FFFFF6FE1030002419
:1012B00010B590F83910222903D0322901D002202C
:1012C00010BD8168B1F5805F11D001690029016806
:1012D0001FD0496801F07F03816A4A1C82620B704B
:1012E000C18D491E0904090CC18518D02FE002697F
:1012F000816A002A0268526805D0D2B20A80816AE7
:10130000491C8162ECE7C2F308020A80816A891CE9
:10131000F7E74A68816A4B1C83620A70E0E701685C
:10132000CA6822F02002CA6090F83910322910D021
:101330000168CA6822F48072CA6001684A6922F0B2
:1013400001024A61012180F83910FFF72CFF0020CB
:1013500010BD1221F7E700002DE9F04104460068B6
:101360000169E26821F440510A4302612068C168C2
:1013700049F20C6291432369A268E5691A436369E3
:101380002B431A430A43C2602068416921F440722A
:10139000A16911434161E06964263225B0F5004F2F
:1013A000484A494920681DD0884201D0904269D1FD
:1013B000FFF7A2FB00EBC00101EB00106168B04633
:1013C0008900B0FBF1F1B1FBF8F6FFF795FB00EBFC
:1013D000C00101EB001061688900B0FBF1F7FFF775
:1013E0008BFB68E0884201D0904219D1FFF784FB63
:1013F00000EBC00101EB00106168B0464900B0FB92
:10140000F1F1B1FBF8F6FFF777FB00EBC00101EB60
:10141000001061684900B0FBF1F7FFF76DFB18E0C1
:10142000FFF754FB00EBC00101EB00106168B04610
:101430004900B0FBF1F1B1FBF8F6FFF747FB00EB19
:10144000C00101EB001061684900B0FBF1F7FFF744
:101450003DFB00EBC00101EB001061684900B0FBEF
:10146000F1F1B1FBF8F06FF01801484307EB800091
:1014700005EB0011B1FBF8F0216866F31F108860DE
:10148000BDE8F081FFF722FB00EBC00101EB00108B
:101490006168B0468900B0FBF1F1B1FBF8F6FFF7E7
:1014A00015FB00EBC00101EB001061688900B0FB87
:1014B000F1F7FFF70BFB00EBC00101EB00106168D7
:1014C0008900CCE7001401400010014090F8391069
:1014D000122903D0322901D0022070478168B1F56A
:1014E000805F016A0BD04A1C026202680978516071
:1014F000C18C491E0904090CC1840ED017E009886B
:101500000268C1F30801516001690029016A02D033
:10151000491C0162ECE7891CFBE70168CA6822F0FC
:101520008002CA600068C16841F04001C1600020CB
:1015300070472DE9F0471D4690460F460446FFF7D9
:10154000E9F806465FEA08004FF000094FF001088D
:1015500008D030E0681C05D095B1FFF7DBF8801BA0
:10156000A8420DD82068006837EA0000F2D127E0D1
:10157000681C20D025B1FFF7CDF8801BA8421AD9EE
:101580002068C16821F08001C1602068C16821F035
:101590002001C1602068C16821F48071C1602068A9
:1015A000416921F00101416184F8398084F8389063
:1015B0000320BDE8F0872068006837EA0000D7D034
:1015C0000020F6E738B5184800680068C043800678
:1015D00022D44FF47A73012269461348FFF77EFD47
:1015E000124A1088010417D441049DF800104FF0EE
:1015F000000304D50A290ED140F4004012E00D2961
:101600000ED0C0F30D04084D401CC83D80B22955D2
:101610001080C72800D913800348FFF76CFC38BD41
:1016200040F480401080F7E76C01002006000020A5
:101630000C4808B500680068C043800611D44FF418
:101640007A73012269460748FFF748FD0649087882
:10165000402806D2034B9DF8002040331A54401C0A
:10166000087008BD2400002004000020FEE7704739
:1016700010B504460420FFF71DFC0148046010BDAE
:101680000000002070B5054600244FF47A7603E090
:10169000304600F005F8641CAC42F9D370BD000080
:1016A00070B54FF0E02500216C69094AAB691268FA
:1016B0005043AA699A42FCD002D2A3EB020302E093
:1016C000A4EB02063344194413468142F1D370BDA2
:1016D0000000002003490A685206FCD5C2B24A60E5
:1016E00070470000001001400024FEF70FFF214664
:1016F000641CA4B203A0FEF7CFFD3220FFF7C2FFA7
:10170000F5E700006868686868686825640D0A0085
:101710000749064AC1E9002000208860C8600861C6
:1017200088610C2048610846FFF75FBC001001404B
:101730006C0100204FF04070E1EE100A704700008D
:101740000000010203040102030406070809000067
:10175000701700080000002024000000E8010008C5
:101760009417000824000020EC0700000402000881
:101770000000000000000000000000000000000069
:101780000024F40000000000000000000102030437
:041790000607080937
:04000005080001AD41
:00000001FF
