:020000040800F2
:10000000900800205D020008C31700088B17000845
:10001000C1170008BB050008811C00080000000093
:10002000000000000000000000000000E7170008CA
:100030000D07000800000000E51700086D18000813
:1000400077020008770200087702000877020008AC
:10005000770200087702000877020008770200089C
:10006000770200087702000877020008770200088C
:10007000770200087702000877020008770200087C
:10008000770200087702000877020008770200086C
:10009000770200087702000877020008770200085C
:1000A000770200087702000877020008770200084C
:1000B000770200087702000877020008770200083C
:1000C000770200087702000877020008770200082C
:1000D00077020008D91B0008451C000877020008B9
:1000E000770200087702000877020008770200080C
:1000F00077020008770200087702000877020008FC
:1001000077020008770200087702000877020008EB
:1001100077020008770200087702000877020008DB
:1001200077020008770200087702000877020008CB
:1001300077020008770200087702000877020008BB
:1001400077020008770200087702000877020008AB
:10015000770200087702000877020008770200089B
:10016000770200087702000877020008770200088B
:1001700077020008770200087702000800000000FC
:10018000770200087702000877020008770200086B
:10019000770200087702000877020008770200085B
:1001A00077020008770200087702000800F002F8E2
:1001B00000F044F80AA090E8000C82448344AAF1BD
:1001C0000107DA4501D100F039F8AFF2090EBAE8BB
:1001D0000F0013F0010F18BFFB1A43F0010318477B
:1001E000581C0000781C0000103A24BF78C878C161
:1001F000FAD8520724BF30C830C144BF04680C602D
:10020000704700000023002400250026103A28BF74
:1002100078C1FBD8520728BF30C148BF0B60704778
:10022000642900F0A780632900F04781002070470F
:100230001FB501F0F3FD1FBD10B510BD00F078F93A
:100240001146FFF7F5FF01F059FD00F096F903B4F0
:10025000FFF7F2FF03BC01F014FD000009488047DE
:1002600009480047FEE7FEE7FEE7FEE7FEE7FEE798
:10027000FEE7FEE7FEE7FEE704480549054A064BB0
:100280007047000071180008AD01000890020020BE
:100290009008002090040020900400207047000087
:1002A0000FB4044910B503AA029800F013F910BC6A
:1002B0005DF814FB0C0000202DE9F0410E460446C9
:1002C000002020622046E168884730B3252805D009
:1002D000D4E901219047206A401CF2E7E1682046FA
:1002E00000278847050018D0A5F14100192802D839
:1002F00020354FF400673246294620462760FFF735
:100300008FFF40B1012804D0F61D26F007060836FD
:10031000D8E7361DD6E72846DAE7206ABDE8F0813F
:1003200070B50C460546012A05D02878800600D510
:10033000EA69002302E0012305E05B1C934202D23C
:10034000E05C0028F9D1A869E618C01AA861286AFB
:10035000184428622846AFF3008004E0D5E9012163
:1003600014F8010B9047B442F8D32846AFF300804D
:1003700070BD00002DE9F041064600241068752983
:10038000314616A510D0AFF30080002802DA4042B3
:1003900013A507E031688A0701D512A502E04907D5
:1003A00004D511A5012401E0AFF3008000210A2249
:1003B00006F1240709E0B0FBF2FCB0FBF2F302FB0C
:1003C0001C00303078541846491C0028F3D12346CD
:1003D0002A463046BDE8F04100F00CB800000000AD
:1003E0002D0000002B000000200000007047704727
:1003F000704770472DE9F0470D46994692460446EE
:1004000000F124080168880604D5E06921F0100194
:10041000216000E00120A84201DD471B00E0002729
:10042000A1697A1902EB0900081AA0612078C006B8
:1004300002D42046AFF30080002608E0D4E9012171
:100440001AF806009047206A401C761C20624E4530
:10045000F4DB2078C0060AD52046AFF3008006E022
:10046000D4E9012130209047206A401C2062381EC8
:10047000A7F10107F4DC07E0D4E9012118F8050031
:100480009047206A401C2062281EA5F10105F3DC7C
:100490002046AFF300802078000602D50220BDE898
:1004A000F0870120FBE710B5436913B1AFF300807B
:1004B00001E0FFF735FF012010BD127800F12401A3
:1004C0000A7000224A700122EDE711684FF0FF32F6
:1004D000E9E70000074B70B50D467B4400F011F8CA
:1004E0000446284600F020F810B14FF0FF3070BDF0
:1004F000204670BD0B18000001694A1C0261087893
:10050000704700B58FB0CDE9013100210591054953
:100510007944CDE9031011466846FFF7CDFE0FB0D0
:1005200000BD0000E5FFFFFF007B00F0800070478A
:10053000754600F02BF8AE4605006946534620F09C
:100540000700854618B020B5FFF796FEBDE82040AD
:100550004FF000064FF000074FF000084FF0000B7F
:1005600021F00701AC46ACE8C009ACE8C009ACE832
:10057000C009ACE8C0098D46704710B50446AFF31A
:1005800000802046BDE81040FFF761BE004870477C
:100590003002002010B500F0BBFB07230222192116
:1005A0004FF4B47001F020F9B42001F06BFBBDE80A
:1005B00010404FF4E13001F01FBCFEE700B58BB0F6
:1005C00000F02CF8062000F0FDFB0022114614205C
:1005D00000F0D8FB142000F0CAFB00F04DF800201A
:1005E0000121CDE90601059049F6A402CDE90002FA
:1005F0004FF6FF7208910292CDE903206946064842
:1006000000F086F801F0C2F80BB0002102485DF856
:1006100004EB00F092B9000028000020144810B547
:10062000016886B041F001010160016801F001013B
:100630000591016841F00101016000680D4C00F076
:10064000010005904FF4805000900220019003902B
:1006500001200290092004906946204600F05CFACF
:10066000E11400916946204600F056FA06B010BD2C
:100670003038024000000240134882B00021026876
:1006800042F0007202600068104A00F000700090B2
:100690000F48026000F1400202631C3242630122F3
:1006A000C0E906120262C0E90921C1628160C1602D
:1006B0004FF4E02101614FF4A00141610621416046
:1006C00002B000F097B800004038024000640040DB
:1006D000280000200C4910B50B6B002018600C6B33
:1006E00041F2143363600C6B04230822A3600B6B8C
:1006F000D8600B6B1A610B6B00F114029854401C0C
:10070000C0B20828F7D310BD2800002070470000B1
:10071000F0B50A7D01209040344A136843F001038C
:100720001360136823F47C53136013684C6A43EA24
:10073000042313602D4D1C352B6883432B602B4CF9
:100740002B4BCE690C34A6B92668864326608F8968
:100750004E6867F31F464F6903EBC707C7F840664B
:100760000F890E6867F31F464F6903EBC707C7F889
:100770004466CE69012E14D12668064326600E8891
:100780004C6866F31F444E6903EBC606C6F8404644
:100790000E89CC6866F31F444E6903EBC603C3F8A9
:1007A0004446124B8C691B1D002C1C6806D0044368
:1007B0001C600E4B0C69143314B104E08443F7E75A
:1007C0001C6884431C600C69012C02D11C68044322
:1007D0001C60096A012902D1296801432960106857
:1007E00020F0010010600020F0BD00000066004015
:1007F000006000402DE9F041040004D094F8380076
:10080000002518B107E00120BDE8F08184F83950D7
:10081000204600F091F8022084F838002068016832
:1008200021F0020101602068016841F001010160CE
:1008300000F060FA0746032604E000F05BFAC01BF4
:100840000A2862D820684068C007F6D0206841684E
:10085000C90767D0A169012901683FD021F0800153
:100860000160E0690128206801683AD021F0400168
:100870000160206A01282068016835D021F020013C
:100880000160606A01282068016830D021F0100101
:100890000160A06A0128206801682BD021F00801BE
:1008A0000160E06A01282068016826D021F0040177
:1008B0000160D4E902010843D4E90412114308435A
:1008C0006168491E08432168C8612068016821F0F9
:1008D0000101016000F00EFA07461BE041F08001C3
:1008E000BEE741F04001C3E741F02001C8E741F015
:1008F0001001CDE741F00801D2E741F00401D7E74C
:1009000000F0F8F9C01B0A2804D904F8386F032056
:10091000657079E720684068C007F1D120684068B9
:10092000C00703D0042084F838006CE7E563012099
:1009300084F83800002067E7704710B590F8382039
:10094000012A01D0122A38D190F83920012A34D056
:10095000012280F8392090F83820122A28D022224B
:1009600080F838200023C3630268546944F480741B
:1009700054610268546944F4007454610268546913
:1009800044F4806454610268546944F4006454611E
:100990000268546944F40044546180F839300068B6
:1009A0000029416906D041F010014161002010BDCD
:1009B0003222D5E741F00201F7E7022010BD70B501
:1009C00003689968490105D49968090102D49968B6
:1009D000C9007ED590F83910012907D0012180F88F
:1009E00039109968490103D5002207E0022070BD43
:1009F0009968090101D5012200E002224FF4C0717B
:100A000001EB02115C5804F001045C50036B9C681C
:100A1000002C66D005686E582643DC685B6844EAA3
:100A2000C3031E436E50036B1C7C04F00F041C6157
:100A30004FF4C273046803EB0213E55825F00F0569
:100A4000E5500468E558066B36693543E550036B9D
:100A50004FF4C47505EB02151C7DD3F8153044EA3C
:100A6000032304686351036B4FF4C67505EB021250
:100A70001C7ED3F8193044EA03230468A35090F88D
:100A80003820222A36D0122280F838200022C26371
:100A900080F839200268536943F480735361026817
:100AA000536943F4007353610268536943F48063EC
:100AB00053610268536943F40063536102685369E8
:100AC00043F4004353610268536943F001035361E7
:100AD00000E011E00068425842F00102425000205C
:100AE00070BD04686558DE681B88354345EA43538A
:100AF000635098E73222C7E7042180F838100120BC
:100B000070BD31B500F0F6F8044600F0F3F8009936
:100B1000001B8842F9D338BD2DE9F84FDFF8A091CA
:100B2000002209F1040A0AF1040B4FF00F080BF13F
:100B3000040E01260B6896403340B34271D14C68D5
:100B4000022C01D0122C11D1D40800EB84073D6A8D
:100B50005407E40E08FA04FC25EA0C05D1F810C08D
:100B60000CFA04FC4CEA050CC7F820C007685400D6
:100B7000032591F804C0A5400CF0030CAF430CFA18
:100B800004FC4CEA070CC0F800C04F68012F05D0E8
:100B9000022F03D0112F01D0122F11D18768D1F865
:100BA0000CC0AF430CFA04FC4CEA070CC0F808C0B8
:100BB0004768B7430E79C6F3001696403E43466039
:100BC000C668AE438D68A5403543C5604C68E400F7
:100BD0006FD53C4C256845F480452560246822F09B
:100BE000030504F480440094374C2E19D6F8087895
:100BF0009407250F08FA05F4A743344CA04201D10D
:100C000000242EE0324CA04201D1012429E0314CD5
:100C1000A04201D1022424E02F4CA04202D103249F
:100C20001FE046E02D4CA04201D1042419E02C4CD9
:100C3000A04201D1052414E02A4CA04201D106248F
:100C40000FE0294CA04201D107240AE0274CA04222
:100C500001D1082405E0264CA04201D1092400E07E
:100C60000A24AC403C43C6F80848D9F800404D4639
:100C70004E689C43F60300D51C432C60DAF8004014
:100C800055464E689C43B60300D51C432C60DBF8E8
:100C900000405D464E689C43F60200D51C432C6024
:100CA000DEF8004075464E689C43B60200D51C43F2
:100CB0002C60521C102AFFF43CAFBDE8F88F0000F6
:100CC000003C014044380240003001400000024036
:100CD0000004024000080240000C024000100240E4
:100CE0000014024000180240001C02400020024094
:100CF00000240240014800687047000010000020F6
:100D000002480168491C0160704700001000002083
:100D10000B4810B5016841F400710160016841F4AD
:100D200080610160016841F480710160052000F07C
:100D300049F80F2000F006F800F015F8002010BD6B
:100D4000003C024010B5044600F096F94FF47A7169
:100D5000B0FBF1F000F0AAFB00222146501E00F08B
:100D600011F8002010BD08B50020009008BD00F06B
:100D70001F02012191404009800000F1E020C0F8ED
:100D800000117047F0B40E4B1B68C3F30223C3F18C
:100D90000704042C00D904241D1D072D01D20023B3
:100DA00000E0DB1E012606FA04F56D1E0D409D4095
:100DB0009E40761E164045EA0601F0BC00F002BDDA
:100DC0000CED00E0064A00F0070110684FF6FF0343
:100DD000184040EA012003490843106070470000B2
:100DE0000CED00E00000FA052DE9F8431D4801680C
:100DF00041F0805101600068012700F080500090B0
:100E0000380490FAA0F0DFF86080B0FA80F048F87B
:100E10002070FFF76FFF04464FF47A75134E04E01D
:100E2000FFF768FF001BA84213D87068C003F7D50E
:100E30004FF4003090FAA0F0B0FA80F048F820703B
:100E4000FFF758FF044607E0FFF754FF001BA842D6
:100E500002D90320BDE8F88370688003F4D5002030
:100E6000F8E700004038024000000E4200700040E9
:100E70002DE9F05FDFF8F8A104460F46DAF800002C
:100E8000DFF8F08100F00F02C8B27A49814641F2E2
:100E9000883608F10808BA4261D202468AF8002072
:100EA000DAF8000000F00F00B8427DD1207880070A
:100EB00007D5D8F80020A36822F0F0021A43C8F83A
:100EC00000202078C0072DD0606801281AD00228A1
:100ED0001BD0032819D009688907002964DAD8F8DB
:100EE0000010474621F003010143C8F80010FFF746
:100EF00001FF0546606801280FD0022818D003289A
:100F00001CD027E009688903E7E709688901E4E75D
:100F1000FFF7F0FE401BB04258D83868C0F381009C
:100F20000128F5D188E0FFF7E5FE401BB0424DD81F
:100F30003868C0F381000228F5D17DE03868FFF7FA
:100F4000D9FE401BB042F9D940E0FFF7D3FE401B69
:100F5000B0423BD8386810F00C0FF6D16CE0207826
:100F6000800707D5D8F80020A36822F0F0021A43C2
:100F7000C8F800202078C0074CD06068012828D02D
:100F8000022829D0032827D009688907002949DACF
:100F9000D8F8002022F003020243C8F80020FFF72F
:100FA000A9FE0546606800E03CE001281DD002284B
:100FB00029D0032838D0B3464646306810F00C0FCD
:100FC00028D0FFF797FE411B5945F6D90320BDE80D
:100FD000F09F09688903D9E709688901D6E7FFF717
:100FE00089FE411B594502D9F0E7B34646463068B1
:100FF000C0F381000128F2D10CE0FFF77BFE411B1A
:10100000594502D9E2E7B34646463068C0F381004D
:101010000228F2D18AF80090DAF8000000F00F0000
:10102000B84209D00120D2E744462068FFF762FEAB
:10103000401BB042F9D9C9E72078400707D5D8F856
:101040000010E26821F4E0511143C8F80010207844
:10105000000708D5D8F80010226921F4604141EA60
:10106000C201C8F800100F20FFF76CFE0020AEE7A9
:10107000003C02400038024010B500F043F8084937
:101080000968F02292FAA2F201F0F001B2FA82F2BB
:10109000D140044A515CC8400349086010BD0000BB
:1010A00008380240261E00081400002010B5FFF783
:1010B000E3FF074909684FF4E05292FAA2F201F403
:1010C000E051B2FA82F2D140024A515CC84010BDF0
:1010D00008380240261E000810B5FFF7CDFF07496B
:1010E00009684FF4604292FAA2F201F46041B2FA48
:1010F00082F2D140024A515CC84010BD083802401B
:10110000261E000830B51948006810F00C01184878
:1011100012D0184C04290ED008290DD1134A121FE1
:101120001168136801F03F015D0247F6C07304D5F2
:10113000B4FBF1F003E0204630BDB0FBF1F01168E4
:10114000194093FAA3F3B3FA83F3D94048431168E3
:101150004FF4403292FAA2F201F44031B2FA82F234
:10116000D140491C4900B0FBF1F030BD08380240C5
:101170000024F40040787D012DE9F84F0446007802
:10118000DFF8FCA2BF4DC0074FF0000648D0DAF8E8
:1011900000105046C1F38101012908D00068C0F356
:1011A000810002280AD1281D0068400206D528685F
:1011B000800335D56068002873D031E0DFF8C49231
:1011C00009F1020989F80060FFF794FD074641F232
:1011D000883804E0FFF78EFDC11B41457AD82868A6
:1011E0008003F7D4207989F80000606860B1FFF7C8
:1011F00081FD074604E0FFF77DFDC11B4145EDD8A9
:1012000028688003F7D50BE0FFF774FD074604E07C
:10121000FFF770FDC11B4145E0D828688003F7D473
:101220002078DFF86492800744D5DAF80010504641
:1012300011F00C0F4FF0F80809D00068C0F38100DE
:1012400002280BD18E48001F0068400206D428688F
:10125000800714D5E068012823D110E0E068D0B100
:101260000120C9F80000FFF745FD074604E0FFF73D
:1012700041FDC01B6428B1D828688007F7D52868CD
:1012800098FAA8F22169B2FA82F220F0F8009140AF
:10129000084328600EE0C9F80060FFF72BFD074601
:1012A00005E0EAE0FFF726FDC01B642812D8286895
:1012B0008007F7D42078000725D5DFF8C48173486C
:1012C000616908F16C0881B101210160FFF712FD2D
:1012D000074605E07EE0FFF70DFDC01B642879D8C6
:1012E000D8F800008007F6D50DE00660FFF702FD94
:1012F000074604E0FFF7FEFCC01B64286AD8D8F854
:1013000000008007F6D42078400753D55C48383079
:10131000016841F0805101600068DFF8748100F0DD
:1013200080500090D8F8001041F48071C8F8001087
:10133000FFF7E0FC074604E0FFF7DCFCC01B642875
:1013400048D8D8F80000C005F6D5DFF834B10BF165
:10135000680B8BF80060FFF7CDFC074641F2883838
:1013600004E0FFF7C7FCC11B41457ED8DBF8000055
:101370008007F6D4207A8BF80000A06868B1FFF7E8
:10138000B9FC074604E0FFF7B5FCC11B41456CD82A
:10139000DBF800008007F6D50CE0FFF7ABFC074652
:1013A00004E0FFF7A7FCC11B41455ED8DBF8000055
:1013B0008007F6D4A069E8B3DAF80010C1F3810120
:1013C00002295AD0022806D0C9F86060FFF792FCC3
:1013D00004464DE049E04F46C9F86060FFF78AFCDB
:1013E000064604E0FFF786FC801B64283DD8286889
:1013F0008001F7D4D4E90701084347F6C07191FA98
:10140000A1F1626AB1FA81F18A40A16A4FF0FF331B
:1014100003EB51014FF4403393FAA3F3B3FA83F390
:1014200099400A4310434FF0706292FAA2F2B2FA66
:1014300082F200E01FE0E16A914008431049091F71
:10144000086001203866FFF755FC044604E0FFF70A
:1014500051FC001B642808D828688001F7D50AE0F1
:10146000FFF748FC001B642802D90320BDE8F88F71
:1014700028688001F4D40020F8E70120F6E7000096
:10148000083802400038024000004742800E4742C0
:10149000007000404FF0E0210428086903D020F0DC
:1014A00004000861704740F00400FAE710B5401EE0
:1014B000B0F1807F01D3012010BD4FF0E0246061C6
:1014C0000F21601700F07EF90020A0610720206145
:1014D000002010BD704738B5016804460868CA6826
:1014E000C0F3000002F4807238B132B10868486875
:1014F0000090E06B40F00100E06308684A69C0F3C7
:10150000400002F0010238B132B10868486800902A
:10151000E06B40F00400E06308684A69C0F38000B3
:1015200002F0010238B132B1086848680090E06BFF
:1015300040F00200E06308684A69C0F3C00002F0AE
:10154000010238B132B1086848680090E06B40F0A1
:101550000800E0630868C968C0F3401001F020018A
:1015600018B111B1204600F0ADF920680168C068DB
:10157000C1F3C01100F0800019B110B1204600F095
:10158000AFFA21680868CA68C0F3801002F0400210
:10159000012568B162B1CA68204622F04002CA60E3
:1015A00094F8391032290CD080F8395000F0ECF85A
:1015B000E06B002804D084F839502046FFF78AFFFA
:1015C00038BD222180F83910F0E770B5040004D04E
:1015D00094F83900002510B106E0012070BD84F8B0
:1015E0003850204600F020F8022084F839002068A6
:1015F000C16821F40051C160204600F0B7F92068AD
:10160000016921F4904101612068416921F02A01BA
:1016100041612068C16841F40051C160E563012067
:1016200084F83900002070BD30B5044600682049B8
:1016300087B0884239D11F48016841F0010101603B
:10164000006800F0010005901A481430016841F06C
:10165000100101600068012100F0100005904FF4B6
:10166000007000900220CDE9010103900720124D87
:10167000049069462846FFF74FFA281500906946FE
:101680002846FFF749FA2068C16821F04001C1608F
:101690002068C16841F02001C1602520FFF767FB89
:1016A000032211462520FFF76DFB07B030BD000077
:1016B0000010014030380240000002402DE9F047A0
:1016C000044690F8390099460D46012801D01228A9
:1016D00057D125B31AB394F83800012851D0012608
:1016E00084F838600027E76394F83900122819D08D
:1016F000222084F83900A285E2854FF48058E08DDD
:101700004B46401EE085A0684FF0000240454FF078
:101710002001204616D100F016FAB0B904E00120ED
:10172000BDE8F0873220E4E720690028206840689F
:1017300003D0C1B225F8011B12E0C0F3080125F85F
:10174000021B0DE000F0FFF908B10320E8E7206973
:1017500000282068406801D000F07F0005F8010BE8
:10176000E08D0028CBD194F83900322805D084F8D8
:10177000396084F838700020D2E7122084F83900EC
:10178000F7E70220CCE770477047FEE70B4A10B539
:10179000536B002001461860536B5860536B986080
:1017A000536B1861536BD86100F11403546B401CE8
:1017B000C0B2E1540828F7D310BD00002800002073
:1017C000FEE770470907090E002806DA00F00F004F
:1017D00000F1E02080F8141D704700F1E02080F84F
:1017E000001470477047704770B51E4C92B00025CA
:1017F000266846F080562660246804F080541194D0
:10180000194C266846F44046266024680DF1240CE5
:1018100004F4404411940124009401940224069499
:101820008CE80D006605CDE907616846FFF7A4FC6A
:1018300000B1FEE7FFF7D8FA00B1FEE70CA90F20D0
:1018400081E831004FF4A0500F904FF48050109079
:1018500005210CA8FFF70CFB002800D0FEE712B012
:1018600070BD00004038024000700040FFF748BAE9
:101870001048016841F4700101600F48016841F0AF
:10188000010101600C4A00210832116002680B4B13
:101890001A400260031D0A4A1A60026822F480227C
:1018A000026005480C300160024958068039086022
:1018B0007047000088ED00E000380240FFFFF6FEB0
:1018C0001030002410B590F83910222903D03229A5
:1018D00001D0022010BD8168B1F5805F11D001698F
:1018E000002901681FD0496801F07F03816A4A1C02
:1018F00082620B70C18D491E0904090CC18518D084
:101900002FE00269816A002A0268526805D0D2B2CB
:101910000A80816A491C8162ECE7C2F308020A80EE
:10192000816A891CF7E74A68816A4B1C83620A70E6
:10193000E0E70168CA6822F02002CA6090F8391016
:10194000322910D00168CA6822F48072CA60016826
:101950004A6922F001024A61012180F83910FFF73B
:1019600012FF002010BD1221F7E700002DE9F04121
:10197000044600680169E26821F440510A430261AB
:101980002068C16849F20C6291432369A268E56945
:101990001A4363692B431A430A43C26020684169B2
:1019A00021F44072A16911434161E0696426322546
:1019B000B0F5004F484A494920681DD0884201D0FF
:1019C000904269D1FFF788FB00EBC00101EB0010EA
:1019D0006168B0468900B0FBF1F1B1FBF8F6FFF7A2
:1019E0007BFB00EBC00101EB001061688900B0FBDC
:1019F000F1F7FFF771FB68E0884201D0904219D1FE
:101A0000FFF76AFB00EBC00101EB00106168B04614
:101A10004900B0FBF1F1B1FBF8F6FFF75DFB00EB1D
:101A2000C00101EB001061684900B0FBF1F7FFF75E
:101A300053FB18E0FFF73AFB00EBC00101EB00108D
:101A40006168B0464900B0FBF1F1B1FBF8F6FFF771
:101A50002DFB00EBC00101EB001061684900B0FBF9
:101A6000F1F7FFF723FB00EBC00101EB0010616809
:101A70004900B0FBF1F1B1FBF8F06FF018014843F9
:101A800007EB800005EB0011B1FBF8F0216866F36D
:101A90001F108860BDE8F081FFF708FB00EBC00174
:101AA00001EB00106168B0468900B0FBF1F1B1FBB9
:101AB000F8F6FFF7FBFA00EBC00101EB00106168DC
:101AC0008900B0FBF1F7FFF7F1FA00EBC00101EB81
:101AD000001061688900CCE700140140001001404B
:101AE00090F83910122903D0322901D00220704712
:101AF0008168B1F5805F016A0BD04A1C02620268FE
:101B000009785160C18C491E0904090CC1840ED0AA
:101B100017E009880268C1F30801516001690029D2
:101B2000016A02D0491C0162ECE7891CFBE70168ED
:101B3000CA6822F08002CA600068C16841F04001B2
:101B4000C160002070472DE9F0471D4690460F46C2
:101B50000446FFF7CFF806465FEA08004FF0000999
:101B60004FF0010808D030E0681C05D095B1FFF7B0
:101B7000C1F8801BA8420DD82068006837EA000031
:101B8000F2D127E0681C20D025B1FFF7B3F8801B05
:101B9000A8421AD92068C16821F08001C16020687C
:101BA000C16821F02001C1602068C16821F4807102
:101BB000C1602068416921F00101416184F83980E8
:101BC00084F838900320BDE8F0872068006837EA81
:101BD0000000D7D00020F6E738B518480068006844
:101BE000C043800622D44FF47A7301226946134819
:101BF000FFF764FD124A1088010417D441049DF8D0
:101C000000104FF0000304D50A290ED140F4004023
:101C100012E00D290ED0C0F30D04084D401CC83D44
:101C200080B229551080C72800D913800348FFF7D8
:101C300052FC38BD40F480401080F7E7F0010020EE
:101C40000A0000200C4808B500680068C043800600
:101C500011D44FF47A73012269460748FFF72EFD2D
:101C600006490878402806D2034B9DF800204033EF
:101C70001A54401C087008BDA8000020080000206D
:101C8000FEE7704710B504460420FFF703FC014847
:101C9000046010BD0400002070B5054600244FF418
:101CA0007A7603E0304600F005F8641CAC42F9D3C4
:101CB00070BD000070B54FF0E02500216C69094A45
:101CC000AB6912685043AA699A42FCD002D2A3EBD6
:101CD000020302E0A4EB0206334419441346814296
:101CE000F1D370BD0400002003490A685206FCD5F8
:101CF000C2B24A6070470000001001400024FEF7A5
:101D000049FCFEF75BFC1BA0FEF7CAFA204D4FF41E
:101D10007A77641CA4B221461EA0FEF7C1FAFEF732
:101D2000D9FC2048FEF74BFE01461FA0FEF7B8FA8B
:101D30003846FFF7B1FF21A0FEF7B2FA2868012864
:101D4000E7D125A0FEF7ACFA164E002404F11400EA
:101D5000716B095C25A0FEF7A3FA641CA4B2082CE1
:101D6000F4D323A0FEF79CFA002028606420FEF73D
:101D7000C8FECEE743414E20746573742064656DE0
:101D80006F202C737461727421A35C0D0A00000033
:101D90000000002074657374202564203A20200D13
:101DA0000A0000002800002073656E6420726573CD
:101DB000756C743A202564200D0A0000D2D1CAB98E
:101DC000D3C343414EB7A2CBCDCAFDBEDDB0FCA309
:101DD000A10D0A0D0A0000000D0A43414EBDD3CAF1
:101DE000D5B5BDCAFDBEDDA3BA0D0A00256300004E
:101DF0000D0A0D0A000000000749064AC1E900204B
:101E000000208860C860086188610C20486108462D
:101E1000FFF7DBBB00100140F00100204FF04070E5
:101E2000E1EE100A70470000000001020304010205
:101E30000304060708090000581E000800000020DF
:101E400028000000E8010008801E0008280000208B
:101E50006808000004020008000000000000000004
:101E60000000000000000000000000000024F4005A
:101E7000000000000000000001020304060708093A
:04000005080001AD41
:00000001FF
