:020000040800F2
:100000008008002055020008431B00080B1B000855
:10001000411B0008330500085521000800000000BE
:10002000000000000000000000000000671B000846
:100030004909000800000000651B00082D1C00088D
:100040006F0200086F0200086F0200086F020008CC
:100050006F0200086F0200086F0200086F020008BC
:100060006F0200086F0200086F0200086F020008AC
:100070006F0200086F0200086F0200086F0200089C
:100080006F0200086F0200086F02000841050008B7
:10009000350500086F0200086F0200086F020008B3
:1000A0006F0200086F0200086F0200086F0200086C
:1000B0006F0200086F0200086F0200086F0200085C
:1000C0006F0200086F0200086F0200086F0200084C
:1000D0006F020008AD200008192100086F02000817
:1000E0006F0200086F0200086F0200086F0200082C
:1000F0006F0200086F0200086F0200086F0200081C
:100100006F0200086F0200086F0200086F0200080B
:100110006F0200086F0200086F0200086F020008FB
:100120006F0200086F0200086F0200086F020008EB
:100130006F0200086F0200086F0200086F020008DB
:100140006F0200086F0200086F0200086F020008CB
:100150006F0200086F0200086F0200086F020008BB
:100160006F0200086F0200086F0200086F020008AB
:100170006F0200086F0200086F0200080000000014
:100180006F0200086F0200086F0200086F0200088B
:100190006F0200086F0200086F0200086F0200087B
:1001A0006F0200086F0200086F02000800F002F8FA
:1001B00000F041F80AA090E8000C82448344AAF1C0
:1001C0000107DA4501D100F036F8AFF2090EBAE8BE
:1001D0000F0013F0010F18BFFB1A43F0010318477B
:1001E000F01F000010200000103A24BF78C878C12A
:1001F000FAD8520724BF30C830C144BF04680C602D
:10020000704700000023002400250026103A28BF74
:1002100078C1FBD8520728BF30C148BF0B60704778
:10022000642900F07980002070471FB501F0C2FFFB
:100230001FBD10B510BD00F037F91146FFF7F5FFEF
:1002400001F09EFF00F055F903B4FFF7F2FF03BC85
:1002500001F081FF0948804709480047FEE7FEE7B3
:10026000FEE7FEE7FEE7FEE7FEE7FEE7FEE7FEE766
:1002700004480549054A064B70470000311C000838
:10028000AD010008800200208008002080040020CA
:1002900080040020704700000FB4044910B503AA81
:1002A000029800F0D3F810BC5DF814FB0C0000209D
:1002B0002DE9F0410E460446002020622046E16808
:1002C000884730B3252805D0D4E901219047206A1A
:1002D000401CF2E7E168204600278847050018D057
:1002E000A5F14100192802D820354FF400673246A5
:1002F000294620462760FFF793FF40B1012804D02C
:10030000F61D26F007060836D8E7361DD6E728463C
:10031000DAE7206ABDE8F0812DE9F04106460024C5
:1003200010687529314616A510D0AFF3008000285B
:1003300002DA404213A507E031688A0701D512A509
:1003400002E0490704D511A5012401E0AFF30080C4
:1003500000210A2206F1240709E0B0FBF2FCB0FB01
:10036000F2F302FB1C00303078541846491C002878
:10037000F3D123462A463046BDE8F04100F00CB8E0
:10038000000000002D0000002B00000020000000F5
:1003900070477047704770472DE9F0470D46994602
:1003A0009246044600F124080168880604D5E069F5
:1003B00021F01001216000E00120A84201DD471B6F
:1003C00000E00027A1697A1902EB0900081AA06170
:1003D0002078C00602D42046AFF30080002608E053
:1003E000D4E901211AF806009047206A401C761CC7
:1003F00020624E45F4DB2078C0060AD52046AFF3D4
:10040000008006E0D4E9012130209047206A401C9A
:100410002062381EA7F10107F4DC07E0D4E90121CE
:1004200018F805009047206A401C2062281EA5F19C
:100430000105F3DC2046AFF300802078000602D5EA
:100440000220BDE8F0870120FBE70000074B70B5F4
:100450000D467B4400F011F80446284600F020F8D1
:1004600010B14FF0FF3070BD204670BD171D000069
:1004700001694A1C02610878704700B58FB0CDE968
:1004800001310021059105497944CDE90310114658
:100490006846FFF70DFF0FB000BD0000E5FFFFFF4E
:1004A000007B00F080007047754600F02BF8AE46E8
:1004B00005006946534620F00700854618B020B570
:1004C000FFF7D6FEBDE820404FF000064FF00007D2
:1004D0004FF000084FF0000B21F00701AC46ACE8EC
:1004E000C009ACE8C009ACE8C009ACE8C0098D4659
:1004F000704710B50446AFF300802046BDE81040B9
:10050000FFF7A2BE004870472002002010B500F09F
:1005100037FE0723022219214FF4B47001F044FB87
:10052000B42001F019FEBDE810404FF4E13001F0B5
:100530002FBEFEE7014800F085BA00001800002039
:10054000014800F07FBA00001800002000B58BB011
:1005500000F02CF8062000F06DFE00221146142059
:1005600000F048FE142000F03AFE00F04DF80020A4
:100570000121CDE906014FF424420590CDE9002088
:100580004FF6FF7208910292CDE9032069460648B2
:1005900000F0DCF901F0BAFA0BB0002102485DF876
:1005A00004EB00F0B2BB000018000020144810B5A6
:1005B000016886B041F001010160016801F00101AC
:1005C0000591016841F00101016000680D4C00F0E7
:1005D000010005904FF4805000900220019003909C
:1005E00001200290092004906946204600F0CCFCCE
:1005F000E11400916946204600F0C6FC06B010BD2B
:100600003038024000000240144808B5026800215A
:1006100042F0007202600068114A00F00070009021
:100620001048026000F1400202631C324263012262
:10063000C0E90612C0E908218162C1628160C1601F
:100640004FF4E02101614FF4A001416106214160B6
:1006500000F0B8FA002800D0012008BD4038024060
:10066000006400401800002010B54FF4D8720368F1
:1006700002EB01129B5813F00404436B9C60046866
:10068000436BA45854D0E4085C6003689A58436BE9
:1006900002F00202DA604FF4DA72036802EB011230
:1006A0009B58446B03F00F03236103689A58436B14
:1006B000C2F30722DA614FF4DC72036802EB011225
:1006C0009B58446B237503689B58446B1B0A6375E6
:1006D00003689B58446B1B0CA37503689A58436BC3
:1006E000120EDA754FF4DE72036802EB01129B58AA
:1006F000446B237603689B58446B1B0A637603683C
:100700009B58446B1B0CA37603689A58436B120EDC
:10071000DA762022002901680DD00A6101684A6951
:1007200022F010024A6190F83810222909D021E005
:10073000640D1C60A9E7CA6001684A6922F00202E0
:10074000F0E701684A6922F480724A6101684A69E7
:1007500022F400724A6101684A6922F480624A61A7
:1007600001684A6922F400624A6101684A6922F418
:1007700000424A6190F83810322906D0012180F8F1
:10078000381000F005FB002010BD1221F7E7000033
:1007900030B50C4C226B1060226B00205060226B35
:1007A0009060226BD060226B08201061002000F165
:1007B000140311F81020256B401C80B2EA5408285D
:1007C000F5D330BD1800002010B501684A6922F049
:1007D00001024A6190F83810122918D101684A695B
:1007E00022F480724A6101684A6922F400724A6107
:1007F00001684A6922F480624A6101684A6922F408
:1008000000624A6101684A6922F400424A6190F834
:100810003810322906D0012180F8381000F096FBFC
:10082000002010BD2221F7E72DE9FF470025384EB3
:100830000095019502950395306803274FF0010854
:10084000012822D033A0FFF727FD0220ADF80400D5
:100850000420ADF808000520ADF80A000620ADF828
:100860000C000720ADF80050ADF80E00ADF8028086
:10087000ADF80670694640F21530FFF789FF2A4847
:1008800000F0C2FA4FF47A703EE028A0FFF704FDB2
:10089000DFF89490002404F11400D9F83410095CB6
:1008A00027A0FFF7F9FC641CA4B2082CF3D325A001
:1008B000FFF7F2FC5524ADF800702627ADF8044090
:1008C000ADF80840ADF80C40ADF80270ADF8064048
:1008D000ADF80A40ADF80E40684601F055F93560B4
:1008E000ADF80080ADF80440ADF80840ADF80C401C
:1008F000ADF80270ADF80640ADF80A40ADF80E4014
:10090000684601F031F9642000F033FBBDE8FF8751
:100910000000002043414EB7A2CBCDD0C5CFA23AB4
:100920000D0A0D0A000000001800002043414EBDD2
:10093000D3CAD5B5BDCAFDBEDDA3BA0D0A000000FD
:10094000256409000D0A000070470000F0B50A7D1B
:1009500001209040344A136843F001031360136888
:1009600023F47C53136013684C6A43EA0423136036
:100970002D4D1C352B6883432B602B4C2B4BCE69A4
:100980000C34A6B92668864326608F894E6867F3C3
:100990001F464F6903EBC707C7F840660F890E680B
:1009A00067F31F464F6903EBC707C7F84466CE6974
:1009B000012E14D12668064326600E884C6866F323
:1009C0001F444E6903EBC606C6F840460E89CC6844
:1009D00066F31F444E6903EBC603C3F84446124B4B
:1009E0008C691B1D002C1C6806D004431C600E4B38
:1009F0000C69143314B104E08443F7E71C688443A2
:100A00001C600C69012C02D11C6804431C60096A3B
:100A1000012902D1296801432960106820F00100F2
:100A200010600020F0BD0000006600400060004043
:100A300001A0FFF731BC00000D0A43414EB3F6B4EC
:100A4000ED0D0A0010B5044600684169C943C907A5
:100A500014D182685849914368D000218368574A6D
:100A60009A4365D0002283685548984362D000209D
:100A70001143014302D02046FFF7A6FE2068C1685B
:100A8000406911F0030FC0F3400004D018B10021F9
:100A90002046FFF7E9FD20680169406911F0030F66
:100AA000C0F3001004D018B101212046FFF7DCFD8F
:100AB000206881694269C1F300014369C2F30022E1
:100AC000C3F3C03329B122B11BB1E16B41F0010185
:100AD000E1638169C1F3400241694369C1F3402187
:100AE000C3F3C0332AB121B11BB1E16B41F0020164
:100AF000E16381694269C1F38001C2F380234269E5
:100B0000C2F3C03229B123B11AB1E16B41F0040143
:100B1000E163816911F0700F0ED000214269C2F3C8
:100B2000C0234269C2F3C03241B127E0012195E7F9
:100B3000012298E701209BE70121EFE7F3B1EAB139
:100B4000816901F07001402929D006DC102909D003
:100B500020290BD030290DD11DE0502923D0602948
:100B600008D124E0E16B41F0080102E0E16B41F0C3
:100B70001001E163816921F070018161E06B00285F
:100B800008D0216804204860012084F838002046FD
:100B9000FFF74EFF10BDE16B41F02001E9E7E16B8B
:100BA00041F04001E5E7E16B41F08001E1E7E16BF5
:100BB00041F48071DDE70000030000040003000839
:100BC000000003102DE9F041040004D094F838002F
:100BD000002518B107E00120BDE8F08184F8395004
:100BE000204600F091F8022084F83800206801685F
:100BF00021F0020101602068016841F001010160FB
:100C000000F0B0FA0746032604E000F0ABFAC01B80
:100C10000A2862D820684068C007F6D0206841687A
:100C2000C90767D0A169012901683FD021F080017F
:100C30000160E0690128206801683AD021F0400194
:100C40000160206A01282068016835D021F0200168
:100C50000160606A01282068016830D021F010012D
:100C60000160A06A0128206801682BD021F00801EA
:100C70000160E06A01282068016826D021F00401A3
:100C80000160D4E902010843D4E904121143084386
:100C90006168491E08432168C8612068016821F025
:100CA0000101016000F05EFA07461BE041F080019F
:100CB000BEE741F04001C3E741F02001C8E741F041
:100CC0001001CDE741F00801D2E741F00401D7E778
:100CD00000F048FAC01B0A2804D904F8386F032032
:100CE000657079E720684068C007F1D120684068E6
:100CF000C00703D0042084F838006CE7E5630120C6
:100D000084F83800002067E7704710B590F8382065
:100D1000012A01D0122A38D190F83920012A34D082
:100D2000012280F8392090F83820122A28D0222277
:100D300080F838200023C3630268546944F4807447
:100D400054610268546944F400745461026854693F
:100D500044F4806454610268546944F4006454614A
:100D60000268546944F40044546180F839300068E2
:100D70000029416906D041F010014161002010BDF9
:100D80003222D5E741F00201F7E7022010BD000052
:100D900010B504460DA0FFF77FFA606B1149026899
:100DA000B2F5A46F04D1826812B90069082807D08F
:100DB00000200860BDE8104000210B48FFF7A5BFE8
:100DC0000120086009A0FFF767FAF3E72D2D2D2D0C
:100DD0002D2D2D2D2D2D2D2D2D2D696E20696E740F
:100DE0000D0A000000000020180000202D2D2D2DE0
:100DF0002D2D2D2D2D2D2D2D2D2D666C6167203D3A
:100E00003D20310D0A00000070B503689968490162
:100E100005D49968090102D49968C9007ED590F873
:100E20003910012907D0012180F83910996849014A
:100E300003D5002207E0022070BD9968090101D5A1
:100E4000012200E002224FF4C07101EB02115C5854
:100E500004F001045C50036B9C68002C66D00568AC
:100E60006E582643DC685B6844EAC3031E436E5039
:100E7000036B1C7C04F00F041C614FF4C273046804
:100E800003EB0213E55825F00F05E5500468E5581B
:100E9000066B36693543E550036B4FF4C47505EBBB
:100EA00002151C7DD3F8153044EA0323046863510E
:100EB000036B4FF4C67505EB02121C7ED3F8193094
:100EC00044EA03230468A35090F83820222A36D03D
:100ED000122280F838200022C26380F8392002688C
:100EE000536943F4807353610268536943F4007398
:100EF00053610268536943F4806353610268536924
:100F000043F4006353610268536943F4004353613F
:100F10000268536943F00103536100E011E0006887
:100F2000425842F001024250002070BD04686558EA
:100F3000DE681B88354345EA4353635098E7322205
:100F4000C7E7042180F83810012070BD704790F881
:100F50003510022903D08021416501207047052109
:100F600080F835100068016821F00101016000205F
:100F7000704731B500F0F6F8044600F0F3F8009938
:100F8000001B8842F9D338BD2DE9F84FDFF8A09156
:100F9000002209F1040A0AF1040B4FF00F080BF1CB
:100FA000040E01260B6896403340B34271D14C6861
:100FB000022C01D0122C11D1D40800EB84073D6A19
:100FC0005407E40E08FA04FC25EA0C05D1F810C019
:100FD0000CFA04FC4CEA050CC7F820C00768540062
:100FE000032591F804C0A5400CF0030CAF430CFAA4
:100FF00004FC4CEA070CC0F800C04F68012F05D074
:10100000022F03D0112F01D0122F11D18768D1F8F0
:101010000CC0AF430CFA04FC4CEA070CC0F808C043
:101020004768B7430E79C6F3001696403E434660C4
:10103000C668AE438D68A5403543C5604C68E40082
:101040006FD53C4C256845F480452560246822F026
:10105000030504F480440094374C2E19D6F8087820
:101060009407250F08FA05F4A743344CA04201D198
:1010700000242EE0324CA04201D1012429E0314C61
:10108000A04201D1022424E02F4CA04202D103242B
:101090001FE046E02D4CA04201D1042419E02C4C65
:1010A000A04201D1052414E02A4CA04201D106241B
:1010B0000FE0294CA04201D107240AE0274CA042AE
:1010C00001D1082405E0264CA04201D1092400E00A
:1010D0000A24AC403C43C6F80848D9F800404D46C5
:1010E0004E689C43F60300D51C432C60DAF80040A0
:1010F00055464E689C43B60300D51C432C60DBF874
:1011000000405D464E689C43F60200D51C432C60AF
:10111000DEF8004075464E689C43B60200D51C437D
:101120002C60521C102AFFF43CAFBDE8F88F000081
:10113000003C0140443802400030014000000240C1
:101140000004024000080240000C0240001002406F
:101150000014024000180240001C0240002002401F
:101160000024024001480068704700001000002081
:1011700002480168491C016070470000100000200F
:101180000B4810B5016841F400710160016841F439
:1011900080610160016841F480710160032000F00A
:1011A00049F80F2000F006F800F018F8002010BDF4
:1011B000003C024010B5044607484FF47A710068BD
:1011C000B0FBF1F000F028FB00222146501E00F099
:1011D00011F8002010BD000014000020704700F03E
:1011E0001F02012191404009800000F1E020C0F879
:1011F00000117047F0B40E4B1B68C3F30223C3F118
:101200000704042C00D904241D1D072D01D200233E
:1012100000E0DB1E012606FA04F56D1E0D409D4020
:101220009E40761E164045EA0601F0BC00F08ABCDE
:101230000CED00E0064A00F0070110684FF6FF03CE
:10124000184040EA0120034908431060704700003D
:101250000CED00E00000FA052DE9F8431D48016897
:1012600041F0805101600068012700F0805000903B
:10127000380490FAA0F0DFF86080B0FA80F048F807
:101280002070FFF76FFF04464FF47A75134E04E0A9
:10129000FFF768FF001BA84213D87068C003F7D59A
:1012A0004FF4003090FAA0F0B0FA80F048F82070C7
:1012B000FFF758FF044607E0FFF754FF001BA84262
:1012C00002D90320BDE8F88370688003F4D50020BC
:1012D000F8E700004038024000000E420070004075
:1012E0002DE9F047DFF85C9104460E46D9F800007E
:1012F00000F00F01F0B28046B14207D289F8000039
:10130000D9F8000000F00F00B04271D120784E4FA4
:10131000800705D53868A16820F0F00008433860E0
:101320002078C00756D048496068083901281AD08B
:1013300002281BD0032819D009688907002957DA29
:10134000396821F0030101433960FFF70BFF0546BF
:10135000606841F28831012811D002281CD003288E
:101360008A4625D032E009688903E7E709688901E0
:10137000E4E7FFF7F7FE411B514501D923E08A4618
:101380003868C0F381000128F3D123E0FFF7EAFEBB
:10139000411B514501D916E08A463868C0F38100E7
:1013A0000228F3D116E0FFF7DDFE411B51450AD8B4
:1013B0003868C0F381000328F5D10BE0FFF7D2FEB7
:1013C000411B514502D90320BDE8F087386810F071
:1013D0000C0FF3D1D9F80010484601F00F01B142CB
:1013E00008D980F80080006800F00F00B04201D0FA
:1013F0000120E9E72078400705D53868E16820F446
:10140000E050084338602078000706D53868216925
:1014100020F4604040EAC100386000F04BF83968C1
:10142000F02292FAA2F201F0F001B2FA82F2D14077
:10143000064A515CC840064908600F20FFF7BAFE13
:101440000020C1E7003C024008380240BE210008ED
:101450001400002008480949006809684FF4E05268
:1014600092FAA2F201F4E051B2FA82F2D140044AB7
:10147000515CC8407047000014000020083802404A
:10148000BE21000808480949006809684FF4604215
:1014900092FAA2F201F46041B2FA82F2D140044A17
:1014A000515CC8407047000014000020083802401A
:1014B000BE21000830B51948006810F00C0118482A
:1014C00012D0184C04290ED008290DD1134A121F2E
:1014D0001168136801F03F015D0247F6C07304D53F
:1014E000B4FBF1F003E0204630BDB0FBF1F0116831
:1014F000194093FAA3F3B3FA83F3D9404843116830
:101500004FF4403292FAA2F201F44031B2FA82F280
:10151000D140491C4900B0FBF1F030BD0838024011
:101520000024F40040787D012DE9F84F044600784E
:10153000DFF8B892AE4DC00735D0D9F80010484654
:10154000C1F38101012908D00068C0F3810002289D
:101550000AD1281D0068400206D52868800322D5DC
:10156000606800287AD01EE0A1492079891C0870A3
:10157000606860B1FFF7F6FD064604E0FFF7F2FD94
:10158000801B64286BD828688003F7D50BE0FFF731
:10159000E9FD064604E0FFF7E5FD801B6428F1D86D
:1015A00028688003F7D42078924F80074FF0010B12
:1015B0004FF0000842D5D9F80010484611F00C0F42
:1015C0004FF0F80A09D00068C0F3810002280BD15F
:1015D0008648001F0068400206D42868800713D59B
:1015E000E06801283AD10FE0E068C8B1C7F800B060
:1015F000FFF7B8FD064604E0FFF7B4FD801B0228A4
:10160000C0D828688007F7D528689AFAAAF2216915
:10161000B2FA82F220F0F8009140084328600DE011
:10162000C7F80080FFF79EFD064604E0FFF79AFD2D
:10163000801B022813D828688007F7D42078000779
:1016400027D5DFF8A8A16C4861690AF16C0A89B155
:10165000C0F800B0FFF786FD064606E0C3E076E07E
:10166000FFF780FD801B022871D8DAF800008007A0
:10167000F6D50EE0C0F80080FFF774FD064604E0E2
:10168000FFF770FD801B022861D8DAF800008007A0
:10169000F6D42078400746D554483830016841F0E8
:1016A000805101600068DFF854A100F08050009084
:1016B000DAF8001041F48071CAF80010FFF752FD0B
:1016C000064604E0FFF74EFD801B02283FD8DAF8FB
:1016D0000000C005F6D5DFF814A1207A0AF1680AE7
:1016E0008AF80000A06878B1FFF73CFD064606E0E6
:1016F000FFF738FD811B41F2883081426BD8DAF860
:1017000000008007F4D50EE0FFF72CFD064606E04A
:10171000FFF728FD811B41F2883081425BD8DAF85F
:1017200000008007F4D4A069F0B3D9F80010C1F329
:101730008101022957D00228C7F8608003D0FFF743
:1017400011FD04464AE0FFF70DFD064605E042E0C4
:10175000FFF708FD801B02283DD828688001F7D4D8
:10176000D4E90701084347F6C07292FAA2F2616A0F
:10177000B2FA82F29140A26A4FF0FF3303EB5202B9
:101780004FF4403393FAA3F3B3FA83F39A4011432F
:1017900008434FF0706292FAA2F2E16AB2FA82F262
:1017A00091400843114900E01BE0091F0860C7F899
:1017B00060B0FFF7D7FC044604E0FFF7D3FC001B42
:1017C000022808D828688001F7D50AE0FFF7CAFC8C
:1017D000001B022802D90320BDE8F88F2868800189
:1017E000F4D40020F8E70120F6E7000008380240B2
:1017F0000038024000004742800E4742007000401F
:101800004FF0E0210428086903D020F004000861AB
:10181000704740F00400FAE710B5401EB0F1807F39
:1018200001D3012010BD4FF0E02460610F2160174B
:1018300000F088F90020A06107202061002010BD81
:101840007047000070B5026804461068D16853699B
:1018500010F00F0F51D003F0010501F490763543DD
:101860005DD0C20705D0CA0503D5E26B42F0010284
:10187000E263420705D5DA0703D0E26B42F00202C9
:10188000E263820705D5DA0703D0E26B42F0040277
:10189000E263020705D5DA0703D0E26B42F00802E3
:1018A000E263E26B002A34D0800604D5880602D5B4
:1018B000204600F0FDF920684069E16BC0F380101C
:1018C00001F008010143204624D000F0E3F920682C
:1018D000416949061AD5416921F040014161606BB7
:1018E000A0B11B490165606BFFF731FB002810D0E8
:1018F000606B016DBDE87040084783060FD58B060D
:101900000DD52046BDE8704000F0D2B92046FFF763
:1019100097FF70BDFFF794FF0020E06370BD0306E2
:1019200006D50B0604D52046BDE8704000F05CBB30
:101930004006F3D54806F1D5D168204621F0400194
:10194000D160202184F8391000F0DEF870BD00006D
:10195000851C000870B5040004D094F839000025F7
:1019600010B106E0012070BD84F83850204600F028
:1019700023F8242084F839002068C16821F400513C
:10198000C160204600F0DAF92068016921F4904135
:1019900001612068416921F02A0141612068C16824
:1019A00041F40051C160E563202084F8390084F8D7
:1019B0003A00002070BD000030B5044600682049A0
:1019C00087B0884239D11F48016841F001010160A8
:1019D000006800F0010005901A481430016841F0D9
:1019E000100101600068012100F0100005904FF423
:1019F000007000900220CDE9010103900720124DF4
:101A0000049069462846FFF7BFFA281500906946FA
:101A10002846FFF7B9FA2068C16821F04001C1608B
:101A20002068C16841F02001C1602520FFF7D7FB85
:101A3000032211462520FFF7DDFB07B030BD000073
:101A40000010014030380240000002402DE9F84308
:101A5000044690F83A001E4617460D46202850D1FD
:101A600035B32FB394F8380001284AD0012084F808
:101A700038004FF00008C4F83C80222084F83A0077
:101A8000FFF770FBA785E78581464FF48057E08D0F
:101A90004B46401EE085A0684FF00002B8424FF070
:101AA00020012046009614D100F0CFFAA0B902E040
:101AB0000120BDE8F883206900282068406803D031
:101AC000C1B225F8011B12E0C0F3080125F8021B82
:101AD0000DE000F0BAFA08B10320EAE72069002817
:101AE0002068406801D000F07F0005F8010BE08D10
:101AF0000028CCD1202084F83A0084F838800020D7
:101B0000D7E70220D5E770477047FEE70B4A10B5CC
:101B1000536B002001461860536B5860536B9860FC
:101B2000536B1861536BD86100F11403546B401C64
:101B3000C0B2E1540828F7D310BD000018000020FF
:101B4000FEE770470907090E002806DA00F00F00CB
:101B500000F1E02080F8141D704700F1E02080F8CB
:101B6000001470477047704710B5014640F221706D
:101B7000FEF70EFE0348FFF747F9BDE8104064206A
:101B8000FFF7F7B91800002010B5014640F22150C8
:101B9000FEF7FEFD0348FFF737F9BDE8104064206B
:101BA000FFF7E7B91800002070B51E4C92B0002571
:101BB000266846F080562660246804F0805411940C
:101BC000194C266846F44046266024680DF1240C22
:101BD00004F44044119401240094019402240694D6
:101BE0008CE80D006605CDE907616846FFF79CFCAF
:101BF00000B1FEE7FFF730FB00B1FEE70CA90F20B4
:101C000081E831004FF4A0500F904FF480501090B5
:101C100005210CA8FFF764FB002800D0FEE712B0F6
:101C200070BD00004038024000700040FFF7A0BACD
:101C30001048016841F4700101600F48016841F0EB
:101C4000010101600C4A00210832116002680B4B4F
:101C50001A400260031D0A4A1A60026822F48022B8
:101C6000026005480C30016002495806803908605E
:101C70007047000088ED00E000380240FFFFF6FEEC
:101C80001030002410B5806B0021C185C184FFF79E
:101C9000D7FD10BD0168CA6822F49072CA6001685D
:101CA0004A6922F001024A61202180F83A10704707
:101CB00010B590F83A10222901D0022010BD816899
:101CC000B1F5805F11D00169002901681FD0496812
:101CD00001F07F03816A4A1C82620B70C18D491E2C
:101CE0000904090CC18518D026E00269816A002A1E
:101CF0000268526805D0D2B20A80816A491C8162AA
:101D0000ECE7C2F308020A80816A891CF7E74A6897
:101D1000816A4B1C83620A70E0E70168CA6822F49A
:101D20009072CA6001684A6922F001024A6120216A
:101D300080F83A10FFF7E7FE002010BD2DE9F041D2
:101D400004460068016921F44052E16811430161D1
:101D50002068C16849F20C6291432369A268E56971
:101D60001A4363692B431A430A43C26020684169DE
:101D7000A26921F440710A434261E0696425B0F52B
:101D8000004F974A974920684FF032083FD0884269
:101D900001D090427CD1FFF775FB00EBC00101EB55
:101DA000001061688900B0FBF1F6FFF76BFB00EBF8
:101DB000C00101EB001061688900B0FBF1F0B0FBDD
:101DC000F5F06FF01801484306EB800108EB0110B5
:101DD000B0FBF5F000F0F006FFF754FB00EBC0019C
:101DE00001EB001061688900B0FBF1F0B0FBF5F089
:101DF00006EB0016FFF746FB00EBC00101EB0010FD
:101E000061688900B0FBF1F7FFF73CFBD2E0884244
:101E100001D090423DD1FFF735FB00EBC00101EB53
:101E2000001061684900B0FBF1F0B0FBF5F006016D
:101E3000FFF728FB00EBC00101EB001061684900CF
:101E4000B0FBF1F7FFF71EFB00EBC00101EB001048
:101E500061684900B0FBF1F0B0FBF5F06FF01801DC
:101E6000484307EB800108EBC100B0FBF5F000F040
:101E7000F80006EB4006FFF705FB00EBC00101EBA5
:101E8000001061684900B0FBF1F7FFF7FBFA3CE096
:101E900055E0FFF7DFFA00EBC00101EB00106168CD
:101EA0004900B0FBF1F0B0FBF5F00601FFF7D2FA04
:101EB00000EBC00101EB001061684900B0FBF1F7D5
:101EC000FFF7C8FA00EBC00101EB001061684900A0
:101ED000B0FBF1F0B0FBF5F06FF01801484307EBF1
:101EE000800108EBC100B0FBF5F000F0F80006EB54
:101EF0004006FFF7AFFA00EBC00101EB001061688C
:101F00004900B0FBF1F7FFF7A5FA00EBC00101EBC8
:101F1000001061684900B0FBF1F0B0FBF5F06FF024
:101F20001801484307EB800108EBC100B0FBF5F056
:101F300000F00700216830448860BDE8F081FFF7B9
:101F400089FA00EBC00101EB001061688900B0FB69
:101F5000F1F6FFF77FFA00EBC00101EB00106168BA
:101F60008900B0FBF1F0B0FBF5F06FF018014843C9
:101F700006EB800108EB0110B0FBF5F000F0F00675
:101F8000FFF768FA00EBC00101EB001061688900FF
:101F9000B0FBF1F0B0FBF5F006EB0016FFF75AFAD4
:101FA00000EBC00101EB001061688900B0FBF1F7A4
:101FB000FFF750FA00EBC00101EB001061688900E7
:101FC000B0FBF1F0B0FBF5F06FF01801484307EB00
:101FD000800108EB0110B0FBF5F000F00F00A9E75D
:101FE000001401400010014090F83910212901D05F
:101FF000022070478168B1F5805F016A0BD04A1CEE
:102000000262026809785160C18C491E0904090CFA
:10201000C1840ED017E009880268C1F3080151603D
:1020200001690029016A02D0491C0162ECE7891CA0
:10203000FBE70168CA6822F08002CA600068C168D4
:1020400041F04001C160002070472DE9F0411E467B
:10205000174688460446069D1CE0681C1AD025B128
:10206000FFF780F8801BA84214D92068C16821F4CA
:10207000D071C1602068416921F0010141612020D7
:1020800084F8390084F83A00002084F838000320EE
:10209000BDE8F0812068016838EA010004D0002022
:1020A000B842DAD00020F3E70120F9E738B5184844
:1020B00000680068C043800622D44FF47A7301227E
:1020C00069461348FFF7C2FC124A1088010417D46E
:1020D00041049DF800104FF0000304D50A290ED1E9
:1020E00040F4004012E00D290ED0C0F30D04084D5D
:1020F000401CC83D80B229551080C72800D91380E4
:102100000348FFF79FFB38BD40F480401080F7E79D
:10211000E00100200A0000200C4808B500680068B3
:10212000C043800611D44FF47A73012269460748F0
:10213000FFF78CFC06490878402806D2034B9DF82F
:10214000002040331A54401C087008BD980000203D
:1021500008000020FEE7704710B504460420FFF792
:102160004FFB0148046010BD0400002003490A68C9
:102170005206FCD5C2B24A60704700000010014010
:10218000FEF7C4F9FEF7E2F9FEF74EFBFCE70000AC
:102190000749064AC1E9002000208860C86008613C
:1021A00088610C2048610846FFF7D4BB001001404D
:1021B000E00100204FF04070E1EE100A704700008F
:1021C00000000102030401020304060708090000DD
:1021D000F02100080000002018000000E8010008BD
:1021E0000822000818000020680800000402000807
:1021F00000000000000000000000000000000000DF
:08220000000000000024F400BE
:04000005080001AD41
:00000001FF
