:020000040800F2
:10000000C008002051020008CD1500088315000823
:100010008515000803040008C11C0008000000004A
:10002000000000000000000000000000F1150008C2
:10003000A305000800000000EF150008791600086D
:100040006B0200086B0200086B0200086B020008DC
:100050006B0200086B0200086B0200086B020008CC
:100060006B0200086B0200086B0200086B020008BC
:100070006B0200086B0200086B0200086B020008AC
:100080006B0200086B0200086B02000811040008F4
:10009000050400086B0200086B0200086B020008F0
:1000A0006B0200086B0200086B0200086B0200087C
:1000B0006B020008D11600086B0200086B020008F2
:1000C0006B0200086B0200086B0200086B0200085C
:1000D0006B020008191C0008851C00086B02000850
:1000E0006B0200086B0200086B0200086B0200083C
:1000F0006B0200086B0200086B0200086B0200082C
:100100006B0200086B0200086B0200086B0200081B
:100110006B0200086B0200086B0200086B0200080B
:100120006B0200086B0200086B0200086B020008FB
:100130006B0200086B0200086B0200086B020008EB
:100140006B0200086B0200086B0200086B020008DB
:100150006B0200086B0200086B0200086B020008CB
:100160006B0200086B0200086B0200086B020008BB
:100170006B0200086B0200086B0200080000000020
:100180006B0200086B0200086B0200086B0200089B
:100190006B0200086B0200086B0200086B0200088B
:1001A0006B0200086B0200086B02000800F002F806
:1001B00000F03EF80AA090E8000C82448344AAF1C3
:1001C0000107DA4501D100F033F8AFF2090EBAE8C1
:1001D0000F0013F0010F18BFFB1A43F0010318477B
:1001E0005C1B00007C1B0000103A24BF78C878C15B
:1001F000FAD8520724BF30C830C144BF04680C602D
:10020000704700000023002400250026103A28BF74
:1002100078C1FBD8520728BF30C148BF0B60704778
:10022000002070471FB501F07BFD1FBD10B510BD4C
:1002300000F0A2F81146FFF7F5FF01F057FD00F0BE
:10024000C0F803B4FFF7F2FF03BC01F03AFD000071
:100250000948804709480047FEE7FEE7FEE7FEE75A
:10026000FEE7FEE7FEE7FEE7FEE7FEE70448054996
:10027000054A064B704700007D160008AD010008D6
:10028000C0020020C0080020C0040020C0040020DC
:10029000704700000FB4044910B503AA029800F09B
:1002A0003DF810BC5DF814FB0C0000202DE9F04176
:1002B0000E460446002020622046E168884730B39D
:1002C000252805D0D4E901219047206A401CF2E797
:1002D000E168204600278847050018D0A5F14100B5
:1002E000192802D820354FF40067324629462046A7
:1002F0002760FFF795FF40B1012804D0F61D26F0D6
:1003000007060836D8E7361DD6E72846DAE7206A1A
:10031000BDE8F0817047704770477047074B70B574
:100320000D467B4400F011F80446284600F020F802
:1003300010B14FF0FF3070BD204670BDB319000002
:1003400001694A1C02610878704700B58FB0CDE999
:1003500001310021059105497944CDE90310114689
:100360006846FFF7A3FF0FB000BD0000E5FFFFFFE9
:10037000007B00F080007047754600F02BF8AE4619
:1003800005006946534620F00700854618B020B5A1
:10039000FFF76CFFBDE820404FF000064FF000076C
:1003A0004FF000084FF0000B21F00701AC46ACE81D
:1003B000C009ACE8C009ACE8C009ACE8C0098D468A
:1003C000704710B50446AFF300802046BDE81040EA
:1003D000FFF737BF004870475C02002010B500F0FF
:1003E0001FFB0723022219214FF4B47001F002F918
:1003F000B42001F067FCBDE810404FF4E13001F09B
:100400007DBCFEE7014800F0D7B8000018000020CE
:10041000014800F0D1B800001800002010B54FF4DA
:10042000D872036802EB01129B5813F00404436B6B
:100430009C600468436BA45854D0E4085C60036873
:100440009A58436B02F00202DA604FF4DA720368E2
:1004500002EB01129B58446B03F00F032361036806
:100460009A58436BC2F30722DA614FF4DC720368D7
:1004700002EB01129B58446B237503689B58446B35
:100480001B0A637503689B58446B1B0CA3750368B8
:100490009A58436B120EDA754FF4DE72036802EB62
:1004A00001129B58446B237603689B58446B1B0ACC
:1004B000637603689B58446B1B0CA37603689A58B9
:1004C000436B120EDA762022002901680DD00A61F2
:1004D00001684A6922F010024A6190F83810222916
:1004E00009D021E0640D1C60A9E7CA6001684A696F
:1004F00022F00202F0E701684A6922F480724A6140
:1005000001684A6922F400724A6101684A6922F46A
:1005100080624A6101684A6922F400624A610168A6
:100520004A6922F400424A6190F83810322906D014
:10053000012180F8381000F041F9002010BD12218F
:10054000F7E710B501684A6922F001024A6190F8A4
:100550003810122918D101684A6922F480724A6160
:1005600001684A6922F400724A6101684A6922F40A
:1005700080624A6101684A6922F400624A61016846
:100580004A6922F400424A6190F83810322906D0B4
:10059000012180F8381000F029F9002010BD222137
:1005A000F7E7704701A0FFF775BE00000D0A434151
:1005B0004EB3F6B4ED0D0A0010B50446006841696B
:1005C000C943C90714D182685849914368D00021B2
:1005D0008368574A9A4365D00022836855489843F8
:1005E00062D000201143014302D02046FFF7A9FF4B
:1005F0002068C168406911F0030FC0F3400004D0C7
:1006000018B100212046FFF709FF20680169406901
:1006100011F0030FC0F3001004D018B101212046DF
:10062000FFF7FCFE206881694269C1F3000143695C
:10063000C2F30022C3F3C03329B122B11BB1E16B75
:1006400041F00101E1638169C1F3400241694369FD
:10065000C1F34021C3F3C0332AB121B11BB1E16B17
:1006600041F00201E16381694269C1F38001C2F393
:1006700080234269C2F3C03229B123B11AB1E16BC0
:1006800041F00401E163816911F0700F0ED0002187
:100690004269C2F3C0234269C2F3C03241B127E0CC
:1006A000012195E7012298E701209BE70121EFE76F
:1006B000F3B1EAB1816901F07001402929D006DC6B
:1006C000102909D020290BD030290DD11DE0502947
:1006D00023D0602908D124E0E16B41F0080102E059
:1006E000E16B41F01001E163816921F070018161EA
:1006F000E06B002808D0216804204860012084F8BD
:1007000038002046FFF74EFF10BDE16B41F020019D
:10071000E9E7E16B41F04001E5E7E16B41F0800181
:10072000E1E7E16B41F48071DDE7000003000004C4
:10073000000300080000031010B590F83820012ACB
:1007400001D0122A38D190F83920012A34D0012260
:1007500080F8392090F83820122A28D0222280F8F8
:1007600038200023C3630268546944F480745461E0
:100770000268546944F4007454610268546944F492
:10078000806454610268546944F4006454610268EE
:10079000546944F40044546180F8393000680029F9
:1007A000416906D041F010014161002010BD3222A4
:1007B000D5E741F00201F7E7022010BD406B09497F
:1007C0000268B2F5A46F04D1826812B900690828E2
:1007D00005D00020086000210348FFF7ADBF0120CD
:1007E000F8E700000000002018000020704790F893
:1007F0003510022903D08021416501207047052171
:1008000080F835100068016821F0010101600020C6
:10081000704700002DE9F84FDFF8A091002209F1A0
:10082000040A0AF1040B4FF00F080BF1040E012625
:100830000B6896403340B34271D14C68022C01D012
:10084000122C11D1D40800EB84073D6A5407E40E42
:1008500008FA04FC25EA0C05D1F810C00CFA04FCD7
:100860004CEA050CC7F820C007685400032591F82E
:1008700004C0A5400CF0030CAF430CFA04FC4CEA96
:10088000070CC0F800C04F68012F05D0022F03D01D
:10089000112F01D0122F11D18768D1F80CC0AF43AE
:1008A0000CFA04FC4CEA070CC0F808C04768B743D0
:1008B0000E79C6F3001696403E434660C668AE43C6
:1008C0008D68A5403543C5604C68E4006FD53C4C4D
:1008D000256845F480452560246822F0030504F46A
:1008E00080440094374C2E19D6F808789407250FC9
:1008F00008FA05F4A743344CA04201D100242EE0AD
:10090000324CA04201D1012429E0314CA04201D156
:10091000022424E02F4CA04202D103241FE046E031
:100920002D4CA04201D1042419E02C4CA04201D14D
:10093000052414E02A4CA04201D106240FE0294CE2
:10094000A04201D107240AE0274CA04201D108248B
:1009500005E0264CA04201D1092400E00A24AC4065
:100960003C43C6F80848D9F800404D464E689C43C1
:10097000F60300D51C432C60DAF8004055464E685B
:100980009C43B60300D51C432C60DBF800405D4659
:100990004E689C43F60200D51C432C60DEF80040F4
:1009A00075464E689C43B60200D51C432C60521C11
:1009B000102AFFF43CAFBDE8F88F0000003C014076
:1009C0004438024000300140000002400004024070
:1009D00000080240000C02400010024000140240D7
:1009E00000180240001C0240002002400024024087
:1009F00042694A40426170470AB181617047090407
:100A0000FBE700000148006870470000100000206C
:100A100002480168491C0160704700001000002076
:100A20000B4810B5016841F400710160016841F4A0
:100A300080610160016841F480710160032000F071
:100A400049F80F2000F006F800F018F8002010BD5B
:100A5000003C024010B5044607484FF47A71006824
:100A6000B0FBF1F000F028FB00222146501E00F000
:100A700011F8002010BD000014000020704700F0A5
:100A80001F02012191404009800000F1E020C0F8E0
:100A900000117047F0B40E4B1B68C3F30223C3F17F
:100AA0000704042C00D904241D1D072D01D20023A6
:100AB00000E0DB1E012606FA04F56D1E0D409D4088
:100AC0009E40761E164045EA0601F0BC00F07FBD50
:100AD0000CED00E0064A00F0070110684FF6FF0336
:100AE000184040EA012003490843106070470000A5
:100AF0000CED00E00000FA052DE9F8431D480168FF
:100B000041F0805101600068012700F080500090A2
:100B1000380490FAA0F0DFF86080B0FA80F048F86E
:100B20002070FFF76FFF04464FF47A75134E04E010
:100B3000FFF768FF001BA84213D87068C003F7D501
:100B40004FF4003090FAA0F0B0FA80F048F820702E
:100B5000FFF758FF044607E0FFF754FF001BA842C9
:100B600002D90320BDE8F88370688003F4D5002023
:100B7000F8E700004038024000000E4200700040DC
:100B80002DE9F047DFF85C9104460E46D9F80000E5
:100B900000F00F01F0B28046B14207D289F80000A0
:100BA000D9F8000000F00F00B04271D120784E4F0C
:100BB000800705D53868A16820F0F0000843386048
:100BC0002078C00756D048496068083901281AD0F3
:100BD00002281BD0032819D009688907002957DA91
:100BE000396821F0030101433960FFF70BFF054627
:100BF000606841F28831012811D002281CD00328F6
:100C00008A4625D032E009688903E7E70968890147
:100C1000E4E7FFF7F7FE411B514501D923E08A467F
:100C20003868C0F381000128F3D123E0FFF7EAFE22
:100C3000411B514501D916E08A463868C0F381004E
:100C40000228F3D116E0FFF7DDFE411B51450AD81B
:100C50003868C0F381000328F5D10BE0FFF7D2FE1E
:100C6000411B514502D90320BDE8F087386810F0D8
:100C70000C0FF3D1D9F80010484601F00F01B14232
:100C800008D980F80080006800F00F00B04201D061
:100C90000120E9E72078400705D53868E16820F4AD
:100CA000E050084338602078000706D5386821698D
:100CB00020F4604040EAC100386000F04BF8396829
:100CC000F02292FAA2F201F0F001B2FA82F2D140DF
:100CD000064A515CC840064908600F20FFF7BAFE7B
:100CE0000020C1E7003C0240083802402A1D0008ED
:100CF0001400002008480949006809684FF4E052D0
:100D000092FAA2F201F4E051B2FA82F2D140044A1E
:100D1000515CC840704700001400002008380240B1
:100D20002A1D000808480949006809684FF4604214
:100D300092FAA2F201F46041B2FA82F2D140044A7E
:100D4000515CC84070470000140000200838024081
:100D50002A1D000830B51948006810F00C01184829
:100D600012D0184C04290ED008290DD1134A121F95
:100D70001168136801F03F015D0247F6C07304D5A6
:100D8000B4FBF1F003E0204630BDB0FBF1F0116898
:100D9000194093FAA3F3B3FA83F3D9404843116897
:100DA0004FF4403292FAA2F201F44031B2FA82F2E8
:100DB000D140491C4900B0FBF1F030BD0838024079
:100DC0000024F40040787D012DE9F84F04460078B6
:100DD000DFF8B892AE4DC00735D0D9F800104846BC
:100DE000C1F38101012908D00068C0F38100022805
:100DF0000AD1281D0068400206D52868800322D544
:100E0000606800287AD01EE0A1492079891C08700A
:100E1000606860B1FFF7F6FD064604E0FFF7F2FDFB
:100E2000801B64286BD828688003F7D50BE0FFF798
:100E3000E9FD064604E0FFF7E5FD801B6428F1D8D4
:100E400028688003F7D42078924F80074FF0010B79
:100E50004FF0000842D5D9F80010484611F00C0FA9
:100E60004FF0F80A09D00068C0F3810002280BD1C6
:100E70008648001F0068400206D42868800713D502
:100E8000E06801283AD10FE0E068C8B1C7F800B0C7
:100E9000FFF7B8FD064604E0FFF7B4FD801B02280B
:100EA000C0D828688007F7D528689AFAAAF221697D
:100EB000B2FA82F220F0F8009140084328600DE079
:100EC000C7F80080FFF79EFD064604E0FFF79AFD95
:100ED000801B022813D828688007F7D420780007E1
:100EE00027D5DFF8A8A16C4861690AF16C0A89B1BD
:100EF000C0F800B0FFF786FD064606E0C3E076E0E6
:100F0000FFF780FD801B022871D8DAF80000800707
:100F1000F6D50EE0C0F80080FFF774FD064604E049
:100F2000FFF770FD801B022861D8DAF80000800707
:100F3000F6D42078400746D554483830016841F04F
:100F4000805101600068DFF854A100F080500090EB
:100F5000DAF8001041F48071CAF80010FFF752FD72
:100F6000064604E0FFF74EFD801B02283FD8DAF862
:100F70000000C005F6D5DFF814A1207A0AF1680A4E
:100F80008AF80000A06878B1FFF73CFD064606E04D
:100F9000FFF738FD811B41F2883081426BD8DAF8C7
:100FA00000008007F4D50EE0FFF72CFD064606E0B2
:100FB000FFF728FD811B41F2883081425BD8DAF8C7
:100FC00000008007F4D4A069F0B3D9F80010C1F391
:100FD0008101022957D00228C7F8608003D0FFF7AB
:100FE00011FD04464AE0FFF70DFD064605E042E02C
:100FF000FFF708FD801B02283DD828688001F7D440
:10100000D4E90701084347F6C07292FAA2F2616A76
:10101000B2FA82F29140A26A4FF0FF3303EB520220
:101020004FF4403393FAA3F3B3FA83F39A40114396
:1010300008434FF0706292FAA2F2E16AB2FA82F2C9
:1010400091400843114900E01BE0091F0860C7F800
:1010500060B0FFF7D7FC044604E0FFF7D3FC001BA9
:10106000022808D828688001F7D50AE0FFF7CAFCF3
:10107000001B022802D90320BDE8F88F28688001F0
:10108000F4D40020F8E70120F6E700000838024019
:101090000038024000004742800E47420070004086
:1010A0004FF0E0210428086903D020F00400086113
:1010B000704740F00400FAE710B5401EB0F1807FA1
:1010C00001D3012010BD4FF0E02460610F216017B3
:1010D00000F07DFA0020A06107202061002010BDF3
:1010E0007047704710B5040003D094F8390010B170
:1010F00007E0012010BD002084F83800204600F0F1
:101100000CF8022084F83900211D206800F0E6FA6E
:10111000012084F83900002010BD70470168CA68BA
:1011200042F00102CA600068016841F001010160FB
:1011300000207047704770B50446006801694FF0A1
:101140000005C943890715D4C168C943890711D46B
:10115000E91E016101202076206880698007204611
:1011600002D0FFF7E7FF04E000F098F8204600F017
:1011700096F8257620680169C943490717D4C168E4
:10118000C943490713D46FF004010161022020769E
:101190002068806910F4407F204602D0FFF7CAFF24
:1011A00004E000F07BF8204600F079F8257620680E
:1011B0000169C943090716D4C168C943090712D494
:1011C0006FF008010161042020762068C069800763
:1011D000204602D0FFF7AEFF04E000F05FF82046A3
:1011E00000F05DF8257620680169C943C90617D467
:1011F000C168C943C90613D46FF01001016108200A
:1012000020762068C06910F4407F204602D0FFF7A6
:1012100091FF04E000F042F8204600F040F8257607
:1012200020680169C943C90708D1C168C943C90712
:1012300004D1891E0161204600F032F8206801695E
:10124000C943090609D4C168C943090605D46FF02A
:10125000800101612046FFF743FF20680169C9430F
:10126000490609D4C168C943490605D46FF0400155
:101270000161204600F020F820680169C943890611
:101280000BD4C168C943890607D46FF020010161FE
:101290002046BDE87040FFF724BF70BD704770471F
:1012A0000349884203D110210248FFF7A1BB7047D0
:1012B00020020020000C02407047704770B50268A1
:1012C00004461068D168536910F00F0F51D003F035
:1012D000010501F4907635435DD0C20705D0CA05FB
:1012E00003D5E26B42F00102E263420705D5DA075B
:1012F00003D0E26B42F00202E263820705D5DA070F
:1013000003D0E26B42F00402E263020705D5DA077C
:1013100003D0E26B42F00802E263E26B002A34D0B1
:10132000800604D5880602D5204600F077FA2068AA
:101330004069E16BC0F3801001F0080101432046D1
:1013400024D000F05DFA2068416949061AD5416948
:1013500021F040014161606BA0B11B490165606BE8
:10136000FFF745FA002810D0606B016DBDE87040B2
:10137000084783060FD58B060DD52046BDE8704083
:1013800000F04CBA2046FFF798FF70BDFFF795FFBD
:101390000020E06370BD030606D50B0604D5204689
:1013A000BDE8704000F0D6BB4006F3D54806F1D545
:1013B000D168204621F04001D160202184F8391005
:1013C00000F0DEF870BD0000F117000870B50400F1
:1013D00004D094F83900002510B106E0012070BD5A
:1013E00084F83850204600F023F8242084F839008F
:1013F0002068C16821F40051C160204600F054FA11
:101400002068016921F4904101612068416921F05F
:101410002A0141612068C16841F40051C160E5635F
:10142000202084F8390084F83A00002070BD0000C4
:1014300030B504460068204987B0884239D11F483A
:10144000016841F001010160006800F001000590B1
:101450001A481430016841F0100101600068012150
:1014600000F0100005904FF4007000900220CDE9CC
:10147000010103900720124D049069462846FFF7AA
:10148000C9F92815009069462846FFF7C3F9206876
:10149000C16821F04001C1602068C16841F02001AD
:1014A000C1602520FFF7EBFA032211462520FFF744
:1014B000F1FA07B030BD00000010014030380240A2
:1014C000000002402DE9F843044690F83A001E4619
:1014D00017460D46202850D135B32FB394F8380065
:1014E00001284AD0012084F838004FF00008C4F8E1
:1014F0003C80222084F83A00FFF784FAA785E7852C
:1015000081464FF48057E08D4B46401EE085A06831
:101510004FF00002B8424FF020012046009614D14F
:1015200000F049FBA0B902E00120BDE8F883206982
:1015300000282068406803D0C1B225F8011B12E0E2
:10154000C0F3080125F8021B0DE000F034FB08B1E0
:101550000320EAE7206900282068406801D000F0F5
:101560007F0005F8010BE08D0028CCD1202084F805
:101570003A0084F838800020D7E70220D5E770478A
:101580007047FEE7FEE700000E4810B5016886B020
:1015900041F00801016000680B4C00F00800059064
:1015A00010200090012001900290032003906946D2
:1015B0002046FFF72FF9002210212046FFF71CFAE2
:1015C00006B010BD30380240000C024070470907D9
:1015D000090E002806DA00F00F0000F1E02080F884
:1015E000141D704700F1E02080F800147047704728
:1015F0007047000070B51E4C92B00025266846F07A
:1016000080562660246804F080541194194C266892
:1016100046F44046266024680DF1240C04F440444E
:101620001194012400940194022406948CE80D0086
:101630006605CDE907616846FFF7C6FB00B1FEE726
:10164000FFF75AFA00B1FEE70CA90F2081E831003C
:101650004FF4A0500F904FF48050109005210CA82B
:10166000FFF78EFA002800D0FEE712B070BD000030
:101670004038024000700040FFF7CAB910480168C6
:1016800041F4700101600F48016841F001010160FF
:101690000C4A00210832116002680B4B1A400260AC
:1016A000031D0A4A1A60026822F48022026005487B
:1016B0000C3001600249580680390860704700000C
:1016C00088ED00E000380240FFFFF6FE10300024F5
:1016D0000148FFF730BD000020020020F0B502688D
:1016E000234D244E244FDFF894C0254B4FF0804EFD
:1016F000A84209D0704507D0B04205D0B84203D007
:10170000604501D0984203D122F070044A68224318
:10171000A8421BD0704519D0B04217D0B84215D09E
:10172000604513D0984211D0164CA0420ED0164CF2
:10173000A0420BD0154CA04208D0154CA04205D0B9
:10174000144CA04202D0144CA04203D122F44074A5
:10175000CA68224302608A68C2620A688262A8423A
:1017600001D0984201D10969016301214161F0BDB5
:10177000000001400004004000080040000C004050
:101780000004014000400140004401400048014085
:1017900000180040001C00400020004038B51148EF
:1017A0000024016841F0020101600068032200F09A
:1017B0000200009021461D20FFF76CF91D20FFF765
:1017C0005EF90A48084901601321C0E901143B2170
:1017D000C0E90314FFF786FCBDE838400348FFF773
:1017E0009DBC000040380240000400402002002060
:1017F00010B5806B0021C185C184FFF75EFD10BD6F
:101800000168CA6822F49072CA6001684A6922F0CD
:1018100001024A61202180F83A10704710B590F813
:101820003A10222901D0022010BD8168B1F5805FF5
:1018300011D00169002901681FD0496801F07F03B8
:10184000816A4A1C82620B70C18D491E0904090C11
:10185000C18518D026E00269816A002A02685268B0
:1018600005D0D2B20A80816A491C8162ECE7C2F3DA
:1018700008020A80816A891CF7E74A68816A4B1C62
:1018800083620A70E0E70168CA6822F49072CA6055
:1018900001684A6922F001024A61202180F83A1069
:1018A000FFF76DFE002010BD2DE9F04104460068F1
:1018B000016921F44052E168114301612068C16867
:1018C00049F20C6291432369A268E5691A4363698E
:1018D0002B431A430A43C26020684169A26921F47C
:1018E00040710A434261E0696425B0F5004F974AB0
:1018F000974920684FF032083FD0884201D090428B
:101900007CD1FFF70FFA00EBC00101EB001061681A
:101910008900B0FBF1F6FFF705FA00EBC00101EB1F
:10192000001061688900B0FBF1F0B0FBF5F06FF0DA
:101930001801484306EB800108EB0110B0FBF5F0FD
:1019400000F0F006FFF7EEF900EBC00101EB00102C
:1019500061688900B0FBF1F0B0FBF5F006EB001612
:10196000FFF7E0F900EBC00101EB001061688900AE
:10197000B0FBF1F7FFF7D6F9D2E0884201D09042F0
:101980003DD1FFF7CFF900EBC00101EB001061681A
:101990004900B0FBF1F0B0FBF5F00601FFF7C2F92A
:1019A00000EBC00101EB001061684900B0FBF1F7EA
:1019B000FFF7B8F900EBC00101EB001061684900C6
:1019C000B0FBF1F0B0FBF5F06FF01801484307EB06
:1019D000800108EBC100B0FBF5F000F0F80006EB69
:1019E0004006FFF79FF900EBC00101EB00106168B2
:1019F0004900B0FBF1F7FFF795F93CE055E0FFF740
:101A000079F900EBC00101EB001061684900B0FBFF
:101A1000F1F0B0FBF5F00601FFF76CF900EBC00147
:101A200001EB001061684900B0FBF1F7FFF762F9C4
:101A300000EBC00101EB001061684900B0FBF1F060
:101A4000B0FBF5F06FF01801484307EB800108EB9D
:101A5000C100B0FBF5F000F0F80006EB4006FFF720
:101A600049F900EBC00101EB001061684900B0FBCF
:101A7000F1F7FFF73FF900EBC00101EB00106168DF
:101A80004900B0FBF1F0B0FBF5F06FF018014843EE
:101A900007EB800108EBC100B0FBF5F000F0070098
:101AA000216830448860BDE8F081FFF723F900EB3E
:101AB000C00101EB001061688900B0FBF1F6FFF78F
:101AC00019F900EBC00101EB001061688900B0FB5F
:101AD000F1F0B0FBF5F06FF01801484306EB800120
:101AE00008EB0110B0FBF5F000F0F006FFF702F98B
:101AF00000EBC00101EB001061688900B0FBF1F060
:101B0000B0FBF5F006EB0016FFF7F4F800EBC001B0
:101B100001EB001061688900B0FBF1F7FFF7EAF80C
:101B200000EBC00101EB001061688900B0FBF1F02F
:101B3000B0FBF5F06FF01801484307EB800108EBAC
:101B40000110B0FBF5F000F00F00A9E70014014010
:101B50000010014090F83910212901D0022070476F
:101B60008168B1F5805F016A0BD04A1C026202688D
:101B700009785160C18C491E0904090CC1840ED03A
:101B800017E009880268C1F3080151600169002962
:101B9000016A02D0491C0162ECE7891CFBE701687D
:101BA000CA6822F08002CA600068C16841F0400142
:101BB000C160002070472DE9F0411E461746884657
:101BC0000446069D1CE0681C1AD025B1FEF71AFFDA
:101BD000801BA84214D92068C16821F4D071C1606B
:101BE0002068416921F001014161202084F8390019
:101BF00084F83A00002084F838000320BDE8F08122
:101C00002068016838EA010004D00020B842DAD028
:101C10000020F3E70120F9E738B5184800680068AC
:101C2000C043800622D44FF47A73012269461348D8
:101C3000FFF748FC124A1088010417D441049DF8AC
:101C400000104FF0000304D50A290ED140F40040E3
:101C500012E00D290ED0C0F30D04084D401CC83D04
:101C600080B229551080C72800D913800348FFF798
:101C700025FB38BD40F480401080F7E7E0010020EC
:101C80000A0000200C4808B500680068C0438006C0
:101C900011D44FF47A73012269460748FFF712FC0A
:101CA00006490878402806D2034B9DF800204033AF
:101CB0001A54401C087008BD98000020080000203D
:101CC000FEE7704710B504460420FFF7E9F9014824
:101CD000046010BD0400002003490A685206FCD5C8
:101CE000C2B24A607047000000100140FEF776FB68
:101CF000FFF74AFCFFF752FDFEE700000749064ADE
:101D0000C1E9002000208860C860086188610C205B
:101D100048610846FFF75ABB00100140E00100206F
:101D20004FF04070E1EE100A704700000000010221
:101D30000304010203040607080900005C1D0008F3
:101D40000000002018000000E8010008741D0008D1
:101D500018000020A808000004020008000000008D
:101D60000000000000000000000000000000000073
:041D70000024F40057
:04000005080001AD41
:00000001FF
