:020000040800F2
:10000000A007002051020008CB1000080B0F0008C9
:10001000C91000082D040008BD15000800000000EC
:10002000000000000000000000000000F5120008C1
:100030002F04000800000000D9120008F712000881
:100040006B0200086B0200086B020008E91200084E
:100050006B0200086B0200086B0200086B020008CC
:10006000310400086B0200086B0200086B020008F4
:100070006B0200086B0200086B0200086B020008AC
:100080006B0200086B0200086B0200086B0200089C
:100090006B0200086B0200086B0200086B0200088C
:1000A0006B0200086B0200086B0200086B0200087C
:1000B0006B0200086B0200086B0200086B0200086C
:1000C0006B0200086B0200086B0200086B0200085C
:1000D0006B020008511500086B0200086B02000853
:1000E0006B020008DD1200086B0200086B020008BA
:1000F0006B0200086B0200086B0200086B0200082C
:100100006B0200086B0200086B0200086B0200081B
:100110006B0200086B0200086B0200086B0200080B
:100120006B0200086B0200086B0200086B020008FB
:100130006B0200086B0200086B0200086B020008EB
:100140006B0200086B0200086B0200086B020008DB
:100150006B0200086B0200086B0200086B020008CB
:100160006B0200086B0200086B0200086B020008BB
:100170006B0200086B0200086B0200080000000020
:100180006B0200086B0200086B0200086B0200089B
:100190006B0200086B0200086B0200086B0200088B
:1001A0006B0200086B0200086B02000800F002F806
:1001B00000F03EF80AA090E8000C82448344AAF1C3
:1001C0000107DA4501D100F033F8AFF2090EBAE8C1
:1001D0000F0013F0010F18BFFB1A43F0010318477B
:1001E000541D0000741D0000103A24BF78C878C167
:1001F000FAD8520724BF30C830C144BF04680C602D
:10020000704700000023002400250026103A28BF74
:1002100078C1FBD8520728BF30C148BF0B60704778
:10022000002070471FB501F06BFA1FBD10B510BD5F
:1002300000F0CAF81146FFF7F5FF01F02BFA00F0C5
:10024000E8F803B4FFF7F2FF03BC01F0E6F90000A1
:100250000948804709480047FEE7FEE7FEE7FEE75A
:10026000FEE7FEE7FEE7FEE7FEE7FEE70448054996
:10027000054A064B7047000081130008AD010008D5
:10028000A0010020A0070020A0030020A003002060
:10029000704700000FB4044910B503AA029800F09B
:1002A00065F810BC5DF814FB100000202DE9F0414A
:1002B0000E460446002020622046E168884730B39D
:1002C000252805D0D4E901219047206A401CF2E797
:1002D000E168204600278847050018D0A5F14100B5
:1002E000192802D820354FF40067324629462046A7
:1002F0002760FFF795FF40B1012804D0F61D26F0D6
:1003000007060836D8E7361DD6E72846DAE7206A1A
:10031000BDE8F0814FF0000200B5134694469646C2
:10032000203922BFA0E80C50A0E80C50B1F1200108
:10033000BFF4F7AF090728BFA0E80C5048BF0CC0B6
:100340005DF804EB890028BF40F8042B08BF704714
:1003500048BF20F8022B11F0804F18BF00F8012B86
:10036000704770477047704770470000074B70B583
:100370000D467B4400F011F80446284600F020F8B2
:1003800010B14FF0FF3070BD204670BD0B13000060
:1003900001694A1C02610878704700B58FB0CDE949
:1003A00001310021059105497944CDE90310114639
:1003B0006846FFF77BFF0FB000BD0000E5FFFFFFC1
:1003C000007B00F080007047754600F02BF8AE46C9
:1003D00005006946534620F00700854618B020B551
:1003E000FFF744FFBDE820404FF000064FF0000744
:1003F0004FF000084FF0000B21F00701AC46ACE8CD
:10040000C009ACE8C009ACE8C009ACE8C0098D4639
:10041000704710B50446AFF300802046BDE8104099
:10042000FFF70FBF004870473C010020FEE7704710
:10043000042000F021B890F83510022903D0802163
:10044000416501207047052180F83510006801687A
:1004500021F00101016000207047000010B5642008
:1004600001F0E6F80349087810B10020087010BDCB
:100470000120FBE70C000020044910B50A68024285
:1004800002D00860FFF7EAFF10BD0000143C0140F5
:100490002DE9F84FDFF8A091002209F1040A0AF1D2
:1004A000040B4FF00F080BF1040E01260B68964069
:1004B0003340B34271D14C68022C01D0122C11D1BF
:1004C000D40800EB84073D6A5407E40E08FA04FCE4
:1004D00025EA0C05D1F810C00CFA04FC4CEA050C16
:1004E000C7F820C007685400032591F804C0A54050
:1004F0000CF0030CAF430CFA04FC4CEA070CC0F8F8
:1005000000C04F68012F05D0022F03D0112F01D05A
:10051000122F11D18768D1F80CC0AF430CFA04FC3C
:100520004CEA070CC0F808C04768B7430E79C6F319
:10053000001696403E434660C668AE438D68A540AF
:100540003543C5604C68E4006FD53C4C256845F4E4
:1005500080452560246822F0030504F4804400945B
:10056000374C2E19D6F808789407250F08FA05F4A9
:10057000A743344CA04201D100242EE0324CA042CB
:1005800001D1012429E0314CA04201D1022424E010
:100590002F4CA04202D103241FE046E02D4CA04284
:1005A00001D1042419E02C4CA04201D1052414E00F
:1005B0002A4CA04201D106240FE0294CA04201D1CF
:1005C00007240AE0274CA04201D1082405E0264C6C
:1005D000A04201D1092400E00A24AC403C43C6F803
:1005E0000848D9F800404D464E689C43F60300D5B4
:1005F0001C432C60DAF8004055464E689C43B60315
:1006000000D51C432C60DBF800405D464E689C43DF
:10061000F60200D51C432C60DEF8004075464E689B
:100620009C43B60200D51C432C60521C102AFFF4D8
:100630003CAFBDE8F88F0000003C01404438024068
:100640000030014000000240000402400008024067
:10065000000C02400010024000140240001802404A
:10066000001C0240002002400024024000690840B3
:1006700000D0012070470AB1816170470904FBE78F
:10068000014800687047000000000020024801682F
:10069000491C0160704700000000002010B50446AE
:1006A00007484FF47A710068B0FBF1F000F030FBBE
:1006B00000222146501E00F005F8002010BD000069
:1006C00004000020F0B40E4B1B68C3F30223C3F1F7
:1006D0000704042C00D904241D1D072D01D200237A
:1006E00000E0DB1E012606FA04F56D1E0D409D405C
:1006F0009E40761E164045EA0601F0BC00F0E6BCBE
:100700000CED00E02DE9F8431D48016841F08051EF
:1007100001600068012700F080500090380490FAD2
:10072000A0F0DFF86080B0FA80F048F82070FFF7A2
:10073000A7FF04464FF47A75134E04E0FFF7A0FFBD
:10074000001BA84213D87068C003F7D54FF40030DF
:1007500090FAA0F0B0FA80F048F82070FFF790FF10
:10076000044607E0FFF78CFF001BA84202D90320D4
:10077000BDE8F88370688003F4D50020F8E7000036
:100780004038024000000E42007000402DE9F04762
:10079000DFF85C9104460E46D9F8000000F00F0126
:1007A000F0B28046B14207D289F80000D9F80000C3
:1007B00000F00F00B04271D120784E4F800705D570
:1007C0003868A16820F0F000084338602078C0073E
:1007D00056D048496068083901281AD002281BD031
:1007E000032819D009688907002957DA396821F0E8
:1007F000030101433960FFF743FF0546606841F29A
:100800008831012811D002281CD003288A4625D01F
:1008100032E009688903E7E709688901E4E7FFF73F
:100820002FFF411B514501D923E08A463868C0F3A8
:1008300081000128F3D123E0FFF722FF411B51453E
:1008400001D916E08A463868C0F381000228F3D146
:1008500016E0FFF715FF411B51450AD83868C0F371
:1008600081000328F5D10BE0FFF70AFF411B51453A
:1008700002D90320BDE8F087386810F00C0FF3D1DF
:10088000D9F80010484601F00F01B14208D980F8AC
:100890000080006800F00F00B04201D00120E9E7BD
:1008A0002078400705D53868E16820F4E050084317
:1008B00038602078000706D53868216920F4604048
:1008C00040EAC100386000F01BF83968F02292FA63
:1008D000A2F201F0F001B2FA82F2D140064A515C74
:1008E000C840064908600F20FFF7D8FE0020C1E786
:1008F000003C0240083802400A17000804000020AB
:1009000030B51948006810F00C01184812D0184C86
:1009100004290ED008290DD1134A121F116813683B
:1009200001F03F015D0247F6C07304D5B4FBF1F05E
:1009300003E0204630BDB0FBF1F01168194093FA96
:10094000A3F3B3FA83F3D940484311684FF440321C
:1009500092FAA2F201F44031B2FA82F2D140491C7B
:100960004900B0FBF1F030BD083802400024F4002B
:1009700040787D012DE9F84F04460078DFF8B89201
:10098000AE4DC00735D0D9F800104846C1F38101FB
:10099000012908D00068C0F3810002280AD1281D6F
:1009A0000068400206D52868800322D560680028C8
:1009B0007AD01EE0A1492079891C0870606860B176
:1009C000FFF75EFE064604E0FFF75AFE801B642830
:1009D0006BD828688003F7D50BE0FFF751FE064679
:1009E00004E0FFF74DFE801B6428F1D828688003DF
:1009F000F7D42078924F80074FF0010B4FF000089A
:100A000042D5D9F80010484611F00C0F4FF0F80A03
:100A100009D00068C0F3810002280BD18648001F6E
:100A20000068400206D42868800713D5E0680128D2
:100A30003AD10FE0E068C8B1C7F800B0FFF720FE78
:100A4000064604E0FFF71CFE801B0228C0D8286879
:100A50008007F7D528689AFAAAF22169B2FA82F2D9
:100A600020F0F8009140084328600DE0C7F80080AE
:100A7000FFF706FE064604E0FFF702FE801B022891
:100A800013D828688007F7D42078000727D5DFF827
:100A9000A8A16C4861690AF16C0A89B1C0F800B07C
:100AA000FFF7EEFD064606E0C3E076E0FFF7E8FD5F
:100AB000801B022871D8DAF800008007F6D50EE016
:100AC000C0F80080FFF7DCFD064604E0FFF7D8FD24
:100AD000801B022861D8DAF800008007F6D420785D
:100AE000400746D554483830016841F080510160D4
:100AF0000068DFF854A100F080500090DAF8001090
:100B000041F48071CAF80010FFF7BAFD064604E010
:100B1000FFF7B6FD801B02283FD8DAF80000C005B9
:100B2000F6D5DFF814A1207A0AF1680A8AF80000E5
:100B3000A06878B1FFF7A4FD064606E0FFF7A0FD28
:100B4000811B41F2883081426BD8DAF800008007BF
:100B5000F4D50EE0FFF794FD064606E0FFF790FDA2
:100B6000811B41F2883081425BD8DAF800008007AF
:100B7000F4D4A069F0B3D9F80010C1F381010229BF
:100B800057D00228C7F8608003D0FFF779FD0446EC
:100B90004AE0FFF775FD064605E042E0FFF770FD0D
:100BA000801B02283DD828688001F7D4D4E90701CA
:100BB000084347F6C07292FAA2F2616AB2FA82F270
:100BC0009140A26A4FF0FF3303EB52024FF44033DF
:100BD00093FAA3F3B3FA83F39A40114308434FF017
:100BE000706292FAA2F2E16AB2FA82F2914008438C
:100BF000114900E01BE0091F0860C7F860B0FFF76B
:100C00003FFD044604E0FFF73BFD001B022808D827
:100C100028688001F7D50AE0FFF732FD001B0228A3
:100C200002D90320BDE8F88F28688001F4D40020A1
:100C3000F8E70120F6E700000838024000380240DB
:100C400000004742800E47420070004070477047E6
:100C500010B504460068C16849050CD58068400499
:100C600009D52046FFF7F3FF2068C16801F0800135
:100C700061F49061C16003494FF480000860012075
:100C8000607710BD143C014001A0FFF703BB0000DA
:100C9000414C41524D2041210D0A000010B504463F
:100CA0000068C168C9050CD58068C00409D5204614
:100CB000FFF7EAFF2068C16801F0800161F4C071AC
:100CC000C1602068C16889050CD58068800409D599
:100CD0002046FFF7BBFF2068C16801F0800161F486
:100CE0002071C16003494FF4003008600120607733
:100CF00010BD0000143C01404FF0E02104280869B9
:100D000003D020F004000861704740F00400FAE7C7
:100D100010B5401EB0F1807F01D3012010BD4FF00F
:100D2000E02460610F21601700F0D0F90020A0617D
:100D300007202061002010BD7047000070B50268D8
:100D400004461068D168536910F00F0F51D003F0BA
:100D5000010501F4907635435DD0C20705D0CA0580
:100D600003D5E26B42F00102E263420705D5DA07E0
:100D700003D0E26B42F00202E263820705D5DA0794
:100D800003D0E26B42F00402E263020705D5DA0702
:100D900003D0E26B42F00802E263E26B002A34D037
:100DA000800604D5880602D5204600F029FB20687D
:100DB0004069E16BC0F3801001F008010143204657
:100DC00024D000F00FFB2068416949061AD541691B
:100DD00021F040014161606BA0B11B490165606B6E
:100DE000FFF729FB002810D0606B016DBDE8704053
:100DF000084783060FD58B060DD52046BDE8704009
:100E000000F0FEBA2046FFF797FF70BDFFF794FF92
:100E10000020E06370BD030606D50B0604D520460E
:100E2000BDE8704000F032BB4006F3D54806F1D56E
:100E3000D168204621F04001D160202184F839108A
:100E400000F062F870BD0000D51300082DE9F843EA
:100E5000044690F83A001E4617460D46202850D109
:100E600035B32FB394F8380001284AD0012084F814
:100E700038004FF00008C4F83C80222084F83A0083
:100E8000FFF7FEFBA785E78581464FF48057E08D8D
:100E90004B46401EE085A0684FF00002B8424FF07C
:100EA00020012046009614D100F021FBA0B902E0F9
:100EB0000120BDE8F883206900282068406803D03D
:100EC000C1B225F8011B12E0C0F3080125F8021B8E
:100ED0000DE000F00CFB08B10320EAE720690028D0
:100EE0002068406801D000F07F0005F8010BE08D1C
:100EF0000028CCD1202084F83A0084F838800020E3
:100F0000D7E70220D5E770477047FEE7124810B5D3
:100F1000016886B041F08001016000680F4C00F06C
:100F20008000059020200090012001900290022076
:100F3000039069462046FFF7ABFA102100916946FD
:100F40002046FFF7A5FA012000F01EF8012000F06E
:100F500007F806B010BD000030380240001C024007
:100F6000054B30B1012806D1012210211846FFF7A8
:100F700082BB0022F9E77047001C02402021014893
:100F8000FFF774BB001C0240054B30B1012806D1AD
:100F9000012220211846FFF76EBB0022F9E77047B7
:100FA000001C024070B505461248016821F44061FA
:100FB0000160016841F4806101600020FFF7D0FF0B
:100FC0000024E809FFF7E0FF6806050E022000F0A4
:100FD0003DFB0120FFF7C4FF022000F037FB00209B
:100FE000FFF7BEFF022000F031FB641CE4B2082CC6
:100FF000E7D370BD001C02400E4810B5016821F413
:1010000040610160016841F4806101600120FFF7E7
:10101000BBFF0120FFF7A4FF042000F017FB002016
:10102000FFF7B2FF042000F011FBBDE810400020E4
:10103000FFF796BF001C02400E4810B5016821F46E
:1010400040610160016841F4806101600020FFF7A8
:1010500087FF0020FFF798FF042000F0F7FA012037
:10106000FFF77EFF042000F0F1FABDE810400120F8
:10107000FFF78ABF001C0240124810B50168002427
:1010800021F440610160016801600120FFF77CFFED
:10109000012000F0DBFA0120FFF762FF012000F0E1
:1010A000D5FA07E0641CE4B2FA2C03D9FFF7C4FFB9
:1010B000012010BDFFF762FF0028F3D1FFF750FFBA
:1010C000002010BD001C0240FEE770470907090E12
:1010D000002806DA00F00F0000F1E02080F8141D6F
:1010E000704700F1E02080F8001470470020AFF353
:1010F000008070B50646002505F1B000C0B200F0D2
:101100005EFA002000F05BFA102000F058FA00248C
:10111000304600F06BFA641CE4B2802CF8D36D1CEE
:10112000EDB2082DE8D370BD10B5FFF7EFFE6420D7
:1011300000F07EFAAE2000F042FA202000F03FFAE4
:10114000102000F03CFAB02000F039FAC82000F07E
:1011500036FA002000F033FA102000F030FA402078
:1011600000F02DFA812000F02AFAFF2000F027FA83
:10117000A12000F024FAA62000F021FAA82000F017
:101180001EFA3F2000F01BFAA42000F018FAD3202A
:1011900000F015FA002000F012FAD52000F00FFA46
:1011A000F02000F00CFAD92000F009FA222000F01B
:1011B00006FADA2000F003FA122000F000FADB2031
:1011C00000F0FDF9202000F0FAF98D2000F0F7F989
:1011D000142000F0F4F9BDE81040AF2000F0EFB9A2
:1011E00010B50446B031C8B200F0E9F9102040EA69
:1011F000141000F0E4F904F00F00BDE8104040F0D6
:10120000010000F0DCB900002DE9F047002692460D
:101210000F460446012B22D0DFF8B490022B24D1D4
:1012200051E0203800F0FF087E2C02D900247F1CFA
:10123000FFB239462046FFF7D3FF08EB48000025F0
:1012400009EB400818F8050000F0D0F96D1CEDB26C
:10125000062DF7D3A41D761CE4B2F6B201E0DFF848
:1012600074901AF806000028DBD1BDE8F08720381A
:1012700000F0FF08782C02D900247F1CFFB2394609
:101280002046FFF7ADFF002505EB081119F8010016
:1012900000F0ACF96D1CEDB2082DF5D3781CC1B28D
:1012A0002046FFF79DFF002505EB081101EB090023
:1012B000007A00F09BF96D1CEDB2082DF4D30834D0
:1012C000761CE4B2F6B21AF806000028CFD1CCE7BB
:1012D000421900081A170008704700000148FFF77C
:1012E000DDBC0000140000200148FFF7B1BC000085
:1012F000140000207047FFF7C9B9000070B592B024
:1013000030216846FFF706F814210CA8FFF702F811
:1013100019480025016841F080510160006800F023
:10132000805011901548016841F440410160006807
:10133000022400F4404011900120009001908005AB
:10134000CDE906400F260896D820CDE909040420EF
:101350000B906846FFF70EFBFFF7D4F94FF4A0504F
:10136000CDE90E50E002CDE90C64109005210CA8E7
:10137000FFF70CFA12B070BD403802400070004018
:101380001048016841F4700101600F48016841F0A4
:10139000010101600C4A00210832116002680B4B08
:1013A0001A400260031D0A4A1A60026822F4802271
:1013B000026005480C300160024958068039086017
:1013C0007047000088ED00E000380240FFFFF6FEA5
:1013D0001030002410B5806B0021C185C184FFF757
:1013E000ABFC10BD0168CA6822F49072CA60016843
:1013F0004A6922F001024A61202180F83A107047C0
:1014000010B590F83A10222901D0022010BD816851
:10141000B1F5805F11D00169002901681FD04968CA
:1014200001F07F03816A4A1C82620B70C18D491EE4
:101430000904090CC18518D026E00269816A002AD6
:101440000268526805D0D2B20A80816A491C816262
:10145000ECE7C2F308020A80816A891CF7E74A6850
:10146000816A4B1C83620A70E0E70168CA6822F453
:101470009072CA6001684A6922F001024A61202123
:1014800080F83A10FFF73FFD002010BD90F83910AA
:10149000212901D0022070478168B1F5805F016A7F
:1014A0000BD04A1C0262026809785160C18C491E47
:1014B0000904090CC1840ED017E009880268C1F341
:1014C0000801516001690029016A02D0491C0162CA
:1014D000ECE7891CFBE70168CA6822F08002CA6059
:1014E0000068C16841F04001C160002070472DE9EB
:1014F000F0411E46174688460446069D1CE0681CBF
:101500001AD025B1FFF7BCF8801BA84214D9206877
:10151000C16821F4D071C1602068416921F00101E6
:101520004161202084F8390084F83A00002084F8D2
:1015300038000320BDE8F0812068016838EA010026
:1015400004D00020B842DAD00020F3E70120F9E708
:1015500038B5184800680068C043800622D44FF4AC
:101560007A73012269461348FFF770FC124A10880B
:10157000010417D441049DF800104FF0000304D576
:101580000A290ED140F4004012E00D290ED0C0F31C
:101590000D04084D401CC83D80B229551080C72855
:1015A00000D913800348FFF7C9FB38BD40F48040E1
:1015B0001080F7E7FC0000200E000020FEE710B5C9
:1015C0000446FFF719FD7820FFF7ECFCFFF754FD08
:1015D0000020FFF7E7FCFFF74FFD2046FFF7E2FC96
:1015E000FFF74AFDBDE81040FFF726BD10B50446E1
:1015F000FFF702FD7820FFF7D5FCFFF73DFD402007
:10160000FFF7D0FCFFF738FD2046FFF7CBFCFFF7D4
:1016100033FDBDE81040FFF70FBD704710B504461D
:101620000420FFF769FB0148046010BD080000209A
:1016300070B5054600244FF47A7603E0304600F09A
:1016400005F8641CAC42F9D370BD000070B54FF0D2
:10165000E02500216C69094AAB6912685043AA6908
:101660009A42FCD002D2A3EB020302E0A4EB0206F2
:101670003344194413468142F1D370BD0800002061
:1016800003490A685206FCD5C2B24A60704700009E
:1016900000100140FFF732FEB420FFF7BFFFFFF755
:1016A00043FDFFF723FD42F210744FF47A750021D9
:1016B00001230CA20846FFF7A7FD01230AA2194641
:1016C0000020FFF7A1FD01230AA202210020FFF75D
:1016D0009BFD2046FFF7ACFFFFF708FD2846FFF70C
:1016E000A7FFE4E7626C6D003031323334353637B2
:1016F00038390000636F6D65206F6E2100000000B7
:101700004FF04070E1EE100A704700000000010247
:10171000030401020304060708090000000000009A
:101720000000002F000000000700070000147F14D5
:101730007F1400242A7F2A120062640813230036D3
:101740004955225000000503000000001C22410002
:10175000000041221C000014083E08140008083E46
:101760000808000000A06000000808080808000041
:1017700060600000002010080402003E5149453E10
:101780000000427F4000004261514946002141452E
:101790004B31001814127F10002745454539003C95
:1017A0004A49493000017109050300364949493663
:1017B00000064949291E0000363600000000563652
:1017C0000000000814224100001414141414000036
:1017D0004122140800020151090600324959513EC4
:1017E000007C1211127C007F49494936003E41417C
:1017F0004122007F4141221C007F49494941007F2D
:1018000009090901003E4149497A007F0808087F1B
:101810000000417F4100002040413F01007F08144B
:101820002241007F40404040007F020C027F007F49
:101830000408107F003E4141413E007F090909062E
:10184000003E4151215E007F091929460046494961
:1018500049310001017F0101003F4040403F001F2E
:101860002040201F003F4038403F006314081463AD
:1018700000070870080700615149454300007F4197
:10188000410000552A552A55000041417F000004BF
:1018900002010204004040404040000001020400F8
:1018A000002054545478007F48444438003844445D
:1018B000442000384444487F0038545454180008E9
:1018C0007E0901020018A4A4A47C007F0804047807
:1018D0000000447D4000004080847D00007F10288F
:1018E00044000000417F4000007C04180478007C24
:1018F0000804047800384444443800FC24242418A4
:101900000018242418FC007C0804040800485454DF
:10191000542000043F444020003C4040207C001CF8
:101920002040201C003C4030403C0044281028440B
:10193000001CA0A0A07C004464544C441414141453
:10194000141400000000000000000000000000006F
:101950000000000000F8000000000000003330002C
:10196000000000100C06100C060000000000000033
:10197000000040C07840C0784000043F04043F04A9
:101980000400007088FC08300000001820FF211EB1
:101990000000F008F000E018000000211C031E21E8
:1019A0001E0000F00888700000001E212324192763
:1019B000211010160E0000000000000000000000C2
:1019C0000000000000E018040200000000071820DA
:1019D000400000020418E00000000040201807004A
:1019E0000000404080F0804040000202010F0102F0
:1019F0000200000000F0000000000101011F0101D1
:101A00000100000000000000000080B07000000035
:101A100000000000000000000000000101010101C1
:101A20000101000000000000000000303000000054
:101A3000000000000000806018040060180601002B
:101A4000000000E010080810E000000F1020201037
:101A50000F00001010F8000000000020203F2020A0
:101A60000000007008080888700000302824222137
:101A700030000030088888483000001820202011ED
:101A80000E000000C02010F8000000070424243FCE
:101A9000240000F808888808080000192120201177
:101AA0000E0000E0108888180000000F112020119F
:101AB0000E0000380808C83808000000003F000089
:101AC00000000070880808887000001C2221212274
:101AD0001C0000E010080810E00000003122221174
:101AE0000F00000000C0C000000000000030300007
:101AF0000000000000800000000000008060000086
:101B000000000000804020100800000102040810BE
:101B100020004040404040404000040404040404CD
:101B2000040000081020408000000020100804027B
:101B30000100007048080808F0000000003036017D
:101B40000000C030C828E810E0000718272423143C
:101B50000B000000C038E0000000203C23020227F8
:101B6000382008F8888888700000203F2020201145
:101B70000E00C03008080808380007182020201080
:101B8000080008F808080810E000203F2020201076
:101B90000F0008F88888E8081000203F2020232044
:101BA000180008F88888E8081000203F200003008B
:101BB0000000C03008080838000007182020221E46
:101BC000020008F808000008F808203F2101012160
:101BD0003F20000808F8080800000020203F2020CF
:101BE000000000000808F8080800C08080807F001E
:101BF000000008F888C028180800203F2001263877
:101C0000200008F8080000000000203F20202020CD
:101C1000300008F8F800F8F80800203F003F003FC7
:101C2000200008F830C00008F808203F20000718FE
:101C30003F00E01008080810E0000F1020202010DE
:101C40000F0008F808080808F000203F21010101F2
:101C50000000E01008080810E0000F182424385095
:101C60004F0008F8888888887000203F2000030C07
:101C70003020007088080808380000382021212210
:101C80001C00180808F8080818000000203F200071
:101C9000000008F808000008F808001F2020202095
:101CA0001F000878880000C83808000007380E01B7
:101CB0000000F80800F80008F800033C0700073CA3
:101CC0000300081868808068180820302C03032C53
:101CD00030200838C800C83808000000203F200025
:101CE000000010080808C8380800203826212020E5
:101CF0001800000000FE020202000000007F4040C9
:101D00004000000C30C00000000000000001063858
:101D1000C00000020202FE000000004040407F00C0
:101D200000000000040202020400000000000000A5
:101D300000000000000000000000808080808080A3
:101D4000808000020204000000000000000000008B
:101D500000000000808080800000001924222222E0
:101D60003F2008F8008080000000003F1120201173
:101D70000E000000008080800000000E1120202056
:101D80001100000000808088F800000E1120201053
:101D90003F200000808080800000001F222222223D
:101DA0001300008080F0888888180020203F2020C1
:101DB00000000000808080808000006B94949493E9
:101DC000600008F8008080800000203F2100002093
:101DD0003F2000809898000000000020203F202035
:101DE0000000000000809898000000C08080807F84
:101DF000000008F8000080808000203F24022D3081
:101E00002000000808F8000000000020203F2020EB
:101E100000008080808080808000203F20003F2064
:101E2000003F8080008080800000203F2100002053
:101E30003F200000808080800000001F20202020A4
:101E40001F00808000808000000080FFA120201102
:101E50000E000000008080808000000E112020A075
:101E6000FF80808080008080800020203F21200033
:101E7000010000008080808080000033242424241E
:101E80001900008080E0808000000000001F2020FA
:101E900000008080000000808000001F20202010B3
:101EA0003F20808080000080808000010E30080686
:101EB000010080800080008080800F300C030C3097
:101EC0000F0000808000808080000020312E0E31C5
:101ED0002000808080000080808080818E701806C5
:101EE000010000808080808080000021302C222131
:101EF000300000000000807C020200000000003F73
:101F0000404000000000FF00000000000000FF0053
:101F100000000002027C800000000040403F000002
:101F2000000000060101020204040000000000009D
:101F300000000000541F00080000002014000000F2
:101F4000E8010008681F0008140000208C0700004A
:101F500004020008000000000024F400000000005B
:081F6000000000000000000079
:04000005080001AD41
:00000001FF
